S00F00006932635F70726A2E737265636C
S3150000000060040020B91900001D180000B519000091
S31500000010B5190000B5190000B5190000B5190000A2
S31500000020000000000000000000000000B5190000FC
S31500000030B519000000000000B5190000B519000050
S3150000004069110000FD1200001D140000FD140000DF
S3150000005069110000FD1200001D140000FD140000CF
S31500000060F90800006D08000089090000D1090000A8
S315000000704000350008000020000000009C0500201C
S31500000080040600206C0600200000000000000000AE
S31500000090000000000000000000000000000000005A
S315000000A0000000000000000000000000000000004A
S315000000B0000000000000000000000000000000003A
S309000000C00000000036
S315000000C40348044B834202D0034B03B118477047DD
S315000000D4540000205400002000000000064B07498D
S315000000E4C91A891048BF0131491003D0044B0BB11A
S315000000F401481847704700BF5400002054000020F0
S315000001040000000010B5064C237843B9FFF7D8FF6A
S31500000114044B13B10448AFF300800123237010BDD0
S315000001247C0400200000000084A2000108B5054BF1
S315000001341BB105490548AFF30080BDE80840FFF749
S31500000144CDBF00BF000000008004002084A200018F
S315000001540379013B1F2B14D8DFE803F0181413139B
S31500000164131313101313131313131310131313135B
S315000001741313131313131313131313100122054B21
S315000001841A7070470122044B1A7070470122034B00
S315000001941A707047980400209A04002099040020DD
S315000001A408B50749074800F085F900B1FEE703469C
S315000001B402460549034800F053F900B1FEE708BDBD
S315000001C470240000E804002055010000D8B10A4656
S315000001D4C9B138B500230E4D0E4C01460E482B709E
S315000001E4237000F015F968B90C4B03E0227822B9A4
S315000001F4013B03D32A78002AF8D033B12378002BA5
S3150000020418BF122038BD03207047142038BD00BF24
S315000002149A04002098040020E804002040420F00BD
S315000002240379012B06D0023B012B05D80122034B8F
S315000002341A707047024A1370704700BF9C0400206E
S315000002449B0400200B4B70B5D3E90051284600F0FF
S31500000254C7FE00B1FEE7044601223221284600F01B
S31500000264D5FC234622462846BDE87040024900F0E4
S31500000274D3BC00BF342400002502000030B500239F
S3150000028486468C460D4A83B00D4D0E4C106801A966
S3150000029402222B708DF804E08DF805C0237000F05F
S315000002A47DFD10B108E0237813B92B78002BFAD022
S315000002B42378002B18BF122003B030BD342400006D
S315000002C49C0400209B04002001232DE9F0414FF0FB
S315000002D4000C86460F46194982B00D68184E194C13
S315000002E4904628461A460DF1070186F800C08DF897
S315000002F407E084F800C000F051FD10B117E0237840
S3150000030413B93378002BFAD0227802F0FF038AB9A6
S31500000314424639462846337000F058FD10B106E0CF
S31500000324237813B93378002BFAD0237813B902B0A3
S31500000334BDE8F081122002B0BDE8F081342400004B
S315000003449C0400209B04002010B58AB0FFF728FF08
S31500000354224CFFF777FF31E04FF47A71642001F005
S3150000036415FA0DF1070101228820FFF7ADFF1C499C
S3150000037478BB9DF8072002A801F0B6FB0B2102A862
S31500000384FFF724FF4FF47A714FF4FA7001F0FEF987
S31500000394012240F20961204600F054FB4FF47A71C1
S315000003A4C82001F0F3F940F209610022204600F06A
S315000003B449FB4FF47A71C82001F0E8F955218820E9
S315000003C4FFF75CFF0028C7D00F210648FFF7FEFEA3
S315000003D4C2E70E210448FFF7F9FED3E7A004002084
S315000003E4142400000424000024240000022800D061
S315000003F470470249024800F0FFBB00BFA424000076
S31500000404A004002008B5FFF79FFF002008BD00BF29
S3150000041410B4046AA37803F07B03A3708378046A98
S3150000042403F00303D21A0B44C0E90332A37843F062
S315000004348003A370837803F00303022B06D0036AB8
S315000004440A780020DA705DF8044B70470B88026A5C
S3150000045443F47E43D38100205DF8044B704700BF0C
S3150000046484460020CCE90A32CCF82410704700BF39
S31500000474F0B5846A85B005460F4694466E46B4B117
S3150000048494E80F0086E80F00EB6920461B78A76006
S31500000494236084F804C0EB6AE3606B6A9847AC6A2D
S315000004A41CB196E80F0084E80F0005B0F0BD344691
S315000004B4EAE700BF012203460878824012F0060FDD
S315000004C405D0CA6952681278120700F1CB8100225E
S315000004D44FF0010C00F580002DE9F04100F58C5039
S315000004E40002C3E907101A704D6998785D628D6938
S315000004F46CF30100C3E90A2598704878D44C9042FD
S3150000050414BF65460225987865F30100987091F941
S315000005140B5091F80AE0680905F01F0620300CFA22
S3150000052406F644F82060BFF34F8FBFF36F8FC948B8
S3150000053405F1C00650F8267062F3104740F826709D
S3150000054450F82660C44E4FEA0E1E67195FFA8EFEF7
S3150000055487F800E346F8253091F9055091F804E050
S315000005646F0905F01F0820370CFA08F844F82780AD
S31500000574BFF34F8FBFF36F8F05F1C00750F8278085
S3150000058462F3104840F8278050F827704FEA0E1E91
S3150000059467195FFA8EFE87F800E346F8253091F96D
S315000005A4075091F806E06F0905F01F0820370CFA8A
S315000005B408F844F82780BFF34F8FBFF36F8F05F118
S315000005C4C00750F8278062F3104840F8278050F897
S315000005D427704FEA0E1E67195FFA8EFE87F800E34E
S315000005E446F8253091F9095091F808E06F0905F0AD
S315000005F41F0820370CFA08F844F82780BFF34F8FFA
S31500000604BFF36F8F05F1C00750F8278062F31048D7
S3150000061440F8278050F827004FEA0E10C0B22C4449
S3150000062484F8000346F82530EFF310868CF310881F
S315000006344FF000450C788948E540446824EA0504EF
S315000006444460406886F31088186A8270186A0271DA
S31500000654186A4272186A8272186AC272186A4283E7
S3150000066440F2F93208780CFA00FC1CEA020F02D0B8
S3150000067440201A6AD0740625012240F2F9301C6A19
S3150000068425770C78A240024240F0CA80CA7848789E
S315000006948C78D200032842EA041200F0D5800028A0
S315000006A40CBFE220F2201C6AD2B222701A6A907140
S315000006B4CC69227B082A00F0C380186A520002F033
S315000006C40202427300256278A078D201400100F04C
S315000006D42000D2B20243186A057220780238012833
S315000006E4186A40F2A280D2B2C27160681A6A84782B
S315000006F454704578147865F301041470C4789474BE
S31500000704D479007804F0A30400F05C002043D0718F
S315000007140020C3E90300C3E90500DC694D4A94F9E6
S315000007240540CD6904F1C00152F8216095F800C076
S3150000073460F3104642F821600CF0030C52F82110C5
S31500000744BFF35F8F4FF0010E6109890004F01F04A7
S3150000075401F1604101F561410EFA04F4C1F88041EA
S315000007640C60D96991F90B4004F1C00152F821607B
S3150000077460F3104642F8216052F82110BFF35F8FF0
S315000007846109890004F01F0401F160410EFA04F4C2
S3150000079401F56141C1F880410C60D96991F90740BE
S315000007A404F1C00152F8216060F3104642F821605A
S315000007B452F82110BFF35F8F6109890004F01F040A
S315000007C401F160410EFA04F401F56141C1F880417A
S315000007D40C60D96991F9091001F1C00452F824603A
S315000007E460F3104642F8246052F82420BFF35F8F6A
S315000007F44A09920001F01F0102F160420EFA01F16A
S3150000080402F56142C2F8801111601A6A4CF0700C4C
S3150000081482F802C06989124A19815A60BDE8F081DA
S315000008244FF478401A6A908230E7FF2545702078A5
S31500000834022808BF42F01002186AD2B2C27167E7F2
S315000008440A201A6A50733DE7F22042F040022AE772
S3150000085400E100E0006000405C0500200040084024
S315000008645549435303207047EFF30383103B1F4A54
S315000008745BB203F1C00152F8210020F4803042F843
S31500000884210052F821201A4A52F82300C3691B6931
S3150000089483B1036903B17047026A0021937803F0B8
S315000008A47F0343F004039370436AC160C3B180229B
S315000008B4FFF7DEBD0369026A002BEED08378C168B8
S315000008C403F00303022B0CD00B78D3708278D0E9A3
S315000008D4031302F003029B1A1144C0E90313D9E778
S315000008E470470B8843F47E43D381EFE700600040F2
S315000008F45C05002010B582B0EFF30383103B1F4A5A
S315000009045BB203F1C00152F8210020F4803042F8B2
S31500000914210052F821201A4A52F82340A27802F004
S315000009240303022B236A0CBF198A5979A3690CBFE6
S31500000934C1F30801C9B2019143B9636AB3B1042290
S31500000944204602B0BDE81040FFF792BD02F0030254
S3150000095401A9606901F0F8F8D4E90521A37803F048
S3150000096403031A44C91AC4E9052109B102B010BD2A
S31500000974636A002BFAD00122E2E700BF0060004060
S315000009845C05002010B5EFF303830E4A103B5CB2FE
S3150000099452F82400026A937803F07B039370436A47
S315000009A41BB102220021FFF763FD074A04F1C003CD
S315000009B452F8231021F4803142F8231052F82330E0
S315000009C410BD00BF5C0500200060004010B5EFF3C9
S315000009D403831A4A103B5CB252F82400837803F06E
S315000009E40303022B036A0CBF198A597993F804C0CE
S315000009F40CBFC1F30801C9B21CF0100F0CF0380289
S31500000A0406D093F81CC01CF0010F08BF42F0400248
S31500000A1493F804C00CF0C70C83F804C0436A0BB106
S31500000A24FFF726FD064A04F1C00352F8231021F409
S31500000A34803142F8231052F8233010BD5C050020A3
S31500000A44006000400120CBB2984080B202B9000495
S31500000A540B0A5B0103F1804303F500239860002031
S31500000A64704700BF2DE9F84F0388DBB182464FF08B
S31500000A74000B4FF00109DFF8D0800024304D4FEA17
S31500000A84CB07DAF8043035F8022BD9198988914254
S31500000A940AD00134032CF4D1BAF800300BF1010B5F
S31500000AA45B45EAD8BDE8F88FDB5909FA04F603F08A
S31500000AB4B853B3F1807FF6B298F8BB3413D03342FF
S31500000AC431D1204A04F1200612F81630DB09E0D0B1
S31500000AD412F81630012123F08003C82002F81630DC
S31500000AE400F054FED5E7334211D0164A04F1200132
S31500000AF412F81130DB09CCD112F81130C82043F0BA
S31500000B04800302F81130012100F040FEC1E7012004
S31500000B1400F01AFF98F8BB340120334388F8BB343D
S31500000B2400F0E2FEE1E7012000F00EFF98F8BB3486
S31500000B34012023EA060388F8BB3400F0D5FEC0E79B
S31500000B44482700000030084000E00140F8B506469A
S31500000B54FFF788FFEFF31082012383F31088234FF6
S31500000B643B681BB92249CB704023CB703B680133E9
S31500000B743B6082F31088338823B300211D4D08E0BF
S31500000B841B01134445F82340328801318BB29A4243
S31500000B9418D9736853F8314003EBC1029288E00315
S31500000BA44FEA1223D2B2EBD502EB031055F820E03C
S31500000BB424F4803C2EF4803E45F820E01B0145F8E1
S31500000BC420C0DEE7EFF31082012383F310883B682D
S31500000BD413B13B68013B3B603B681BB98020044969
S31500000BE4CB70C87082F31088F8BD00BF580500208A
S31500000BF4000D08400008084008B5034B036008468A
S31500000C04FFF7A4FF002008BD54524F5003460020AE
S31500000C1459601A72704700BF84460020CCE90E3230
S31500000C24CCF83410704700BF0346044ADB68002042
S31500000C349B1AB3FA83F35B090B7070474349495215
S31500000C4430B5836B83B004460A466D46A3B193E878
S31500000C54030085E80300E16B1A7119601846636B9B
S31500000C649847A36B1BB195E8030083E803000023B0
S31500000C7484F82B3003B030BD2B46ECE730B5454B3A
S31500000C8483B01B6A01690193019B03F00F2301934F
S31500000C94019A019D0B7C90F82C409CB9C2F3032267
S31500000CA4DBB2A2EB156293409B0804D1082003B083
S31500000CB430BD013BFAD04A78C2F3C014D209F8D148
S31500000CC4CC710169002390F82620846980F82720D6
S31500000CD4026880F82B30C46180F82D3080F8283003
S31500000CE480F82E30036280F82F3080F83030546A52
S31500000CF4227894F801E0012A14BF4FF0040C4FF057
S31500000D04050C6279120142EA4E0294F806E042EAC0
S31500000D14CE124CEA0202D2B2CA7001690A7942F0D2
S31500000D2410020A7101690A7963F3C3020A7101693F
S31500000D340A7963F304120A710269E179137961F39A
S31500000D44C71313710269537943F00103537103689E
S31500000D5493F90F30002B07DB012203F01F040E4921
S31500000D645B09A24041F82320BF210269537A03F0AC
S31500000D74F30353720369D97190F82C302BB1002315
S31500000D8480F82C30002003B030BD022203695A706B
S31500000D94F8E700BF00E0014000E100E090F808C079
S31500000DA4C0E90512BCF1010F80F82A3008D10022EF
S31500000DB4436880F826C05B0080F8243080F825203C
S31500000DC4002380F82930FFF759BF00BF90F808C008
S31500000DD4C0E90512BCF1010F80F82A300AD10022BD
S31500000DE4436880F826C05B0043F0010380F8243092
S31500000DF480F82520012380F82930FFF73FBF00BF84
S31500000E04F0B50024402203691C7003691A70066950
S31500000E1433785B06FCD5C027377006680769766A9F
S31500000E246B4D36794FF0000C46F0E0063E740668CA
S31500000E340769766A4FF0B30EF678664A46F0E0061E
S31500000E447E7406680769766A634CB678634B360126
S31500000E5406F0700646F00806BE700668766A3778AD
S31500000E64012F777814BF0426052646EA4706076944
S31500000E74F6B2FE7006687668AE4214BF7726F72689
S31500000E8405696E71056985F806C0056985F807E088
S31500000E944E7B91F9115036015719F6B287F8006363
S31500000EA444F8250005F1C00653F826706CF3104784
S31500000EB443F8267053F82660BFF35F8F01264FEA86
S31500000EC4551E4FEA8E0E05F01F050EF1604E0EF507
S31500000ED4614E06FA05F5CEF88051CEF8005091F829
S31500000EE40DE091F90F504FEA0E1E57195FFA8EFE68
S31500000EF487F800E344F8250005F1C00E53F82E7078
S31500000F046CF3104743F82E7053F82E70BFF35F8FBF
S31500000F144FEA551E4FEA8E0E05F01F050EF1604E80
S31500000F2406FA05F50EF5614ECEF88051CEF800505E
S31500000F3491F80DE091F910504FEA0E1E57195FFA19
S31500000F448EFE87F800E344F8250005F1C00E53F839
S31500000F542E706CF3104743F82E7053F82E70BFF3BF
S31500000F645F8F4FEA551E4FEA8E0E05F01F050EF1F0
S31500000F74604E06FA05F50EF5614ECEF88051CEF8B0
S31500000F8400504D7B91F90E102D010A44EDB282F802
S31500000F94005344F8210001F1C00253F822406CF3D7
S31500000FA4104443F8224053F82230BFF35F8F4B09B5
S31500000FB49B0001F01F0103F160438E4003F561437A
S31500000FC4C3F880611E609F2203691A70F0BD00BFDA
S31500000FD440420F0000E100E05C0500200060004094
S31500000FE470B500250A78016002F5800202F51F62D9
S31500000FF4120202618A68044642600A7B0272CA6966
S3150000100442630A6A80F82950C26380F82A508563CD
S3150000101480F82B504561C0E90655056280F82C50CE
S31500001024EFF3108C012282F310880B78C3F10903C5
S315000010349A40074B5E6826EA02025A605B688CF3A4
S315000010441088FFF7DDFE034B2846E36070BD00BF42
S31500001054004008404349495238B500250369DD710B
S315000010640168FFF7CDFEB322836990F82610036268
S31500001074036980F82C50C56180F8281080F82A503E
S31500001084DA71284638BD00BF38B500250446036921
S31500001094DD710168FFF7B4FEB320012394F826201E
S315000010A484F82C5084F82820A269E561226222691A
S315000010B484F82A50D07122692849D5712268E560DE
S315000010C492F91120500902F01F0203FA02F22030AD
S315000010D441F82020BFF34F8FBFF36F8F226892F938
S315000010E40E20500902F01F0203FA02F2203041F8E2
S315000010F42020BFF34F8FBFF36F8F226892F9102021
S31500001104500902F01F0203FA02F2203041F82020AF
S31500001114BFF34F8FBFF36F8F226892F90F205009E8
S3150000112402F01F0203FA02F2203041F82020BFF336
S315000011344F8FBFF36F8FEFF3108083F3108821680E
S31500001144074A0978C1F109018B4051680B43536082
S31500001154536880F31088284638BD00BF00E100E0DC
S315000011640040084010B582B0EFF30383103B5F4A9A
S315000011745BB2C03352F8231021F4803142F82310B5
S3150000118452F82330EFF30383594A103B5BB252F80B
S31500001194234094F82D305BBBA369022B22D9E36963
S315000011A4012B0ED12269137943F0100313712269BE
S315000011B4137943F0080313712269137923F010039A
S315000011C4137123685B6ADB79002B3ED10122236904
S315000011D4DB7CDBB28DF807309DF8073084F82D20D0
S315000011E402B010BD2269137943F040031371D6E7A8
S315000011F4E369002BF4D02268526AD279FAB9032B38
S3150000120417D0022B26D0012B34D02269236AD17C35
S315000012146269D154D4E907320132013BC4E9073289
S31500001224002BDDD121690A7963F386120A7102B0B3
S3150000123410BD2269137943F040031371E5E70521D4
S315000012442046FFF7FDFCE369D9E705212046FFF7B1
S31500001254F7FCBBE72269137943F010031371226983
S31500001264137943F0080313712269137923F01003E9
S315000012741371CAE794F82A2072B322681D4892F9BA
S315000012840F20510902F01F0203FA02F2203140F83E
S315000012942120BFF34F8FBFF36F8F04202169CA79D2
S315000012A442F08002CA7121690A7942F010020A7179
S315000012B421690A7922F008020A7121690A7922F061
S315000012C410020A712269507021694A7922F00102DA
S315000012D44A7184F82C3098E708212269537A03F07E
S315000012E4F7035372236959708FE700BF006000400B
S315000012F45C05002000E100E010B5EFF30383103B2A
S31500001304424A5BB2C03352F8231021F4803142F8CA
S31500001314231052F82330EFF303833D4A103B5BB2AC
S3150000132452F8234094F82730002B3FD194F8293003
S31500001334002B3AD123685B6ADB792BB194F82B3006
S3150000134413B9236A002B5BD1E3692169002B40D1D1
S31500001354CB79C02223F08003CB71216901E0013AE5
S3150000136402D0CB79DB09FAD12368284A93F91030E5
S31500001374C03352F8231021F4803142F8231052F876
S315000013842330236893F91030002B09DB01215A0915
S31500001394204803F01F03603201FA03F340F82230B9
S315000013A42269D37943F04003D37110BD94F82630F3
S315000013B4032B1CD094F8242023699A7494F82820CB
S315000013C494F827300132013B84F8282084F827302A
S315000013D410BD236A6269D35C8B74D4E90732013287
S315000013E4013BC4E90732002BDFD12169B0E794F849
S315000013F42830022BDED194F83030002BDAD110BD20
S3150000140405212046FFF71CFC9EE700BF0060004054
S315000014145C05002000E100E038B5EFF30383334AAE
S31500001424103B5BB252F8234023685B6ADB79002BDE
S3150000143448D194F829301BB194F82730012B4FD0AA
S31500001444E369DBB12169C023CA7922F04002CA717B
S31500001454216901E0013B02D0CA795206FAD4EFF3BE
S315000014640383103B224A5BB2C03352F8231021F4A3
S31500001474803142F8231052F8233038BD94F82A20DC
S315000014842AB3012022681B4D92F90F20510902F05C
S315000014941F02203100FA02F245F82120BFF34F8FD4
S315000014A4BFF36F8F2169CA7942F08002CA710421A1
S315000014B42269517021694A7963F300024A7184F8FA
S315000014C42C00BFE705212046FFF7BAFBB1E7082148
S315000014D42269537A03F0F703537223695970B1E70B
S315000014E494F83030002BADD0AAE700BF5C0500208D
S315000014F40060004000E100E038B5EFF303834F4A93
S31500001504103B5BB252F823000269537A517ADC0627
S3150000151401F0E00151725FFA83FC03F003022BD55C
S315000015240369597849064DD40024012580F82B50C7
S31500001534DC710168FFF764FCB32290F8263080F86A
S315000015442C4080F82830C46180F82A4003698469F5
S3150000155429460462DA71FFF773FBEFF30383103B4A
S31500001564374A5BB2C03352F8231021F4803142F873
S31500001574231052F8233038BD002A5CD11CF0080F22
S3150000158411D0C369002B45D190F82B30002B41D1E3
S31500001594B32290F829100369C1F10301C9B2DA71C3
S315000015A4FFF74EFBD9E790F82C200CF0040342B366
S315000015B4002BD2D0C369002B3BD190F82B30002BE3
S315000015C437D1E5E7002AAFD15A78C2F38011520623
S315000015D4D4D5082280F82B105A70036801695A6A18
S315000015E494791378527943EAC41343EA021343F015
S315000015F40203DBB2CB700269537943F001035371E2
S31500001604ABE7002BA9D003685B6ADB79002BA4D077
S315000016140421C5E70023B321826990F826400262BB
S31500001624026980F82C3080F82840C36180F82A309B
S31500001634D1710121B4E7036976E700BF5C05002098
S3150000164400600040064B074993F826001A6A51F8D1
S315000016542030C2F302620449D3400B60704700BFD6
S3150000166400E0014060040020980500204AF203507F
S3150000167401232F492F4A2DE9F043A1F8FE03A2F8CE
S315000016840431B2F804319BB2002BFAD101244FF491
S31500001694004529482949C0E903338560A2F8004179
S315000016A4274A8C600C600260264A01F5B83191F82D
S315000016B4265042600A6A81F8804481F83630224B0B
S315000016C4436191F83C30DA07FBD542F211740023EA
S315000016D4174A0C8581F82A3092F83C309B06FBD5D4
S315000016E405244FF003090123F1254FF0F00E4FF4C2
S315000016F4254CDFF84080154F88F81C91176282F854
S31500001704264092F82640124950F82400146A114ED5
S31500001714C4F30264E04030600D730B7281F80CE090
S3150000172482F8303082F85230A2F8FEC3BDE8F08366
S3150000173400E0014000C00140600400200070004049
S31500001744002D310100127A0000C2EB0B2112012098
S31500001754002000409805002010B50024064B012007
S3150000176483F8284000F0F0F8044B012083F8BB44CA
S31500001774BDE8104000F0B8B80030084000E0014071
S31500001784A0F101000028FBD1704700BF1F4B204A7F
S315000017941B6800FB01F1934213D302F1854202F563
S315000017A4071203F5741302F6834203F6FF03A2FB42
S315000017B403231B0DA3FB01314FF0FF30F9B1FFF7F3
S315000017C4DFBF4FF47A7210B4A1FB02C41148B0FB18
S315000017D4F3F34FF0FF3044B9BCFBF3FC4FEA9C0033
S315000017E488B15DF8044BFFF7CBBF9B00B1FBF3F167
S315000017F4A1FB0212002AF4D1084620B1F1E71846EB
S31500001804002BDCD170475DF8044B70479805002027
S3150000181400127A0000CA9A3B70B500240B4B0C4E9A
S31500001824B3F82021B3F84051ADB2154025FA04F3BC
S31500001834DB0704D556F82430E0B203B198470134E7
S31500001844102CF3D1014BA3F8305170BD0060004059
S315000018541805002030B5032085B000F075F8002582
S315000018646FF0FF014FF0FF301B4B1C4C996422466E
S315000018742B464FF0010ECDE90100039032F8021B0E
S315000018840EFA03FC013311B1012520EA0C000C2BDE
S31500001894F4D1F5B10190124B0F4A1067C3F88002D8
S315000018A4029903205167C3F8841203999167C3F818
S315000018B4881200F019F800230A4834F8022B03F1C1
S315000018C4C00101330AB140F821200C2BF5D105B033
S315000018D430BD4FF0FF30DEE70080004030270000C7
S315000018E400E100E000600040EFF31081012383F380
S315000018F41088124B33F8102092B22AB133F8102014
S31500001904013A92B223F8102033F810309BB293B9FF
S3150000191410B40B4A0B4CB2F8FE3334F810009BB2E9
S3150000192443F4254323EA0003A2F8FE3381F3108827
S315000019345DF8044B704781F3108870478C050020CE
S3150000194400E001404828000030B4EFF31081012381
S3150000195483F310880E4A32F810309BB26BB90D4CE3
S315000019640D4DB4F8FE3335F810C09BB243EA0C03B0
S3150000197443F425439BB2A4F8FE3332F81030013306
S315000019849BB222F8103081F3108830BC704700BF38
S315000019948C05002000E001404828000008B500F04E
S315000019A4CBF80C2203461A604FF0FF3008BD00BF87
S315000019B400BE704708B500F035F8FEF723FDFEE7D4
S315000019C4F8B5174F05463E68A6B17C6806EB460691
S315000019D404EB860602E00C34B4420BD0637AAB42C5
S315000019E4F9D1D4E900020021121A0C3400F09CF853
S315000019F4B442F3D1BE6896B1FC6804EB061602E065
S31500001A041034A6420BD0637BAB42F9D1D4E9000271
S31500001A14A168121A103400F097F8A642F3D1F8BD63
S31500001A24702700004FF47001274B284A70B5002038
S31500001A34C3F888109A60FEF7D9FCFFF717FE012059
S31500001A44FEF7D4FC224B83F30A880020FFF7B8FF85
S31500001A54FFF7F8FDFFF780FE0320FFF775FF00236D
S31500001A644FF6FF701B4903F1080201330C2B21F8D2
S31500001A741200F8D100240320FFF736FF0320FFF7F6
S31500001A8463FF154B03205C609C60DC601C61FFF700
S31500001A942BFF0220FEF7AAFC0120FFF791FF0F4D52
S31500001AA40F4B5B1BA3424FEAA30605DD55F8043B27
S31500001AB401349847A642F9DCFFF7CCFEBDE8704036
S31500001AC4002000F00FB800BF00ED00E000000000A9
S31500001AD460000020000D084000000E40E0280000D1
S31500001AE4E4280000704700BF0EB400B59CB06FF048
S31500001AF400411DAB029006900791049108480949DC
S31500001B0453F8042B059102A90068019300F07EF9AD
S31500001B14029B00221A701CB05DF804EB03B07047F8
S31500001B24040000200802FFFF02440346934200D14A
S31500001B34704703F8011BF9E7014B1868704700BFAB
S31500001B4404000020704770470A44431E914200D1A6
S31500001B54704710B511F8014B914203F8014FF9D1C2
S31500001B6410BD000038B50546002941D051F8043CA3
S31500001B740C1F002BB8BFE41800F0E0F81D4A1368E8
S31500001B8433B9636014602846BDE8384000F0DCB819
S31500001B94A34208D9206821188B4201BF19685B68E3
S31500001BA409182160EDE71A465B680BB1A342FAD91E
S31500001BB411685018A0420BD12068014450181160D6
S31500001BC48342E0D118685B68084453601060DAE722
S31500001BD402D90C232B60D6E7206821188B4202BF5A
S31500001BE419685B680918636008BF21605460CAE716
S31500001BF438BD00BFE006002070B50F4E0C46054602
S31500001C04316811B900F0A8FB30602146284600F07F
S31500001C14A3FB431C03D14FF0FF34204670BDC41C04
S31500001C2424F00304A042F8D0211A284600F094FBBD
S31500001C340130F2D1EFE700BFDC0600202DE9F843BE
S31500001C44CD1C064625F0030508350C2D38BF0C259A
S31500001C54002D01DBA94204D90C2333600020BDE822
S31500001C64F883DFF8D48000F069F8D8F800301C4611
S31500001C7444BB29463046FFF7BFFF431C044658D1F0
S31500001C84D8F800402746002F43D1002C4BD02368B8
S31500001C943946304604EB030900F05EFB814542D128
S31500001CA4216830466D1A2946FFF7A6FF01303AD05F
S31500001CB423682B442360D8F800305A6862BBC8F8FE
S31500001CC400700FE02268521B20D40B2A17D9611921
S31500001CD4A342256018BF5960636808BFC8F800109E
S31500001CE462514B60304600F02FF804F10B00231DBF
S31500001CF420F00700C21A1CBF1B1AA350AFE7626884
S31500001D04A3420CBFC8F800205A60EBE72346646878
S31500001D14AEE73C467F68B6E71A465B68A342FBD14A
S31500001D2400235360DEE70C233046336000F00CF8E2
S31500001D3494E70560D6E700BFE00600200148FFF7F8
S31500001D4401BF00BFD80600200148FFF7FCBE00BF54
S31500001D54D80600202DE9F0471F468E6882460C46B9
S31500001D64BE4290460B682DD8B1F90C2012F4906F40
S31500001D7426D06569096905EB4505A3EB01097B1CBA
S31500001D8405EBD5754B446D109D4238BF1D46530572
S31500001D9427D52946FFF752FF064660B34A4621690E
S31500001DA4FFF7D2FEA38923F4906343F08003A38153
S31500001DB426614E446561A5EB090526603E46A5608D
S31500001DC4BE4200D93E4632464146206800F0AAFA91
S31500001DD4A36800209B1BA360236833442360BDE8EB
S31500001DE4F0872A4600F0D6FA06460028E0D1216993
S31500001DF45046FFF7B7FE0C234FF0FF30CAF8003009
S31500001E04A38943F04003A381E9E700002DE9F04FDD
S31500001E1498468B899DB007461B060D46144610D579
S31500001E240B6973B94021FFF709FF2860286130B9AF
S31500001E340C233B604FF0FF301DB0BDE8F08F40230C
S31500001E446B610023CDF80C804FF00109DFF8A08107
S31500001E54099320238DF8293030238DF82A30234620
S31500001E649A4613F8012B0AB1252AF9D1BAEB040BC9
S31500001E740BD05B46224629463846FFF76BFF0130F6
S31500001E8400F0A780099A5A4409929AF80030002B68
S31500001E9400F09F8000234FF0FF320AF1010A0493F9
S31500001EA407938DF853301A93CDE90523544605223A
S31500001EB44F4814F8011B00F05FFA049AD8B9D0060B
S31500001EC444BF20238DF85330110744BF2B238DF8CC
S31500001ED453309AF800302A2B15D0079A544600201E
S31500001EE44FF00A0C214611F8013B303B092B4BD924
S31500001EF4B0B1079214E0A0EB0803A24609FA03F373
S31500001F0413430493D2E7039B191D1B68002B03910B
S31500001F14BBBF5B4242F0020207930793B8BF049229
S31500001F2423782E2B0AD163782A2B32D1039B0234D1
S31500001F341A1D1B6843EAE37303920593DFF8C0A0F6
S31500001F4403222178504600F017FA38B1A0EB0A00B4
S31500001F544022049B013482401343049314F8011B6A
S31500001F64062224488DF8281000F006FA002836D0F8
S31500001F74214B1BBB039B073323F00703083303934F
S31500001F84099B334409936AE70CFB02320C46012091
S31500001F94A8E7002301344FF00A0C1946059320469E
S31500001FA410F8012B303A092A03D9002BC6D0059123
S31500001FB4C4E70CFB012104460123F0E703AB2A46E0
S31500001FC404A9384600930D4BAFF30080421C064625
S31500001FD4D6D1AB895B063FF52DAF09982CE703AB49
S31500001FE42A4604A938460093044B00F07DF8EDE731
S31500001FF4522800005C28000000000000591D000063
S31500002004582800002DE9F047164698468A68074680
S315000020140B690C46DDF820909342B8BF1346336033
S3150000202491F843200AB1013333602368990642BF0D
S31500002034336802333360256815F0060506D104F1CA
S31500002044190AE36832689B1AAB422BDC94F84330D6
S315000020542268003B18BF0123920630D404F14302E0
S3150000206441463846C847013023D023681A3454F809
S315000020740A2C03F00603042B0ABF54F80E5C002551
S3150000208433684FF0000608BFED1A54F8123C08BF37
S3150000209425EAE5759342C4BF9B1AED18B5421AD1D9
S315000020A4002008E00123524641463846C84701301D
S315000020B403D14FF0FF30BDE8F0870135C1E7E118E1
S315000020C45A1C30200233224481F8430094F8451008
S315000020D482F84310C2E70123224641463846C847E0
S315000020E40130E6D00136D9E72DE9FF470F7E914648
S315000020F480460C46782F9A460C9E01F1430207D877
S31500002104622F0AD8002F00F0D180582F00F0B88033
S3150000211404F1420684F842703AE0A7F16303152BF2
S31500002124F6D801A151F823F0852100009921000079
S3150000213415210000152100001521000015210000BD
S315000021449921000015210000152100001521000029
S315000021541521000097220000C3210000512200002F
S315000021641521000015210000B922000015210000E8
S31500002174C32100001521000015210000592200008A
S3150000218433681A1D1B68326004F1420684F8423033
S3150000219401239CE033682068191D3160060601D5C9
S315000021A41D6803E04506FBD5B3F90050002D03DA9C
S315000021B42D236D4284F8433058480A2311E02168E0
S315000021C43368080653F8045B02D4490648BFADB227
S315000021D46F2F3360514814BF0A230823002184F863
S315000021E443106668002EA66005DB21682E4321F0A5
S315000021F4040121604BD01646B5FBF3F103FB1157DE
S31500002204C75D06F8017D2F460D46BB42F4D9082B5F
S315000022140BD12368DF0708D5236961689942DEBFBD
S31500002224302306F8013C06F1FF36921B22614B4629
S3150000223403AA21464046CDF800A0FFF7E3FE01308D
S315000022444AD14FF0FF3004B0BDE8F087236843F06D
S315000022542003236078273248236884F845701F06D4
S31500002264316851F8045B02D45F0648BFADB23160F1
S31500002274D90744BF43F0200323601DB11023ADE703
S315000022842648E9E7236823F020032360F6E7164689
S31500002294BDE733682568181D616930602E061B6822
S315000022A401D5196002E06806FBD51980002316469D
S315000022B42361BCE7336800211A1D32601E68626818
S315000022C4304600F059F808B1801B606063682361EA
S315000022D4002384F84330AAE7236932464946404638
S315000022E4D0470130ADD023689B0713D4E068039B25
S315000022F49842B8BF1846A6E70123324649464046E7
S31500002304D04701309DD00135E36803995B1AAB428F
S31500002314F2DCEBE7002504F11906F5E76328000073
S3150000232474280000884210B501EB020402D98442E5
S31500002334234607D8431EA14208D011F8012B03F8FF
S31500002344012FF8E7024401468A4200D110BD13F872
S31500002354014D02F8014DF7E738B50023054D044653
S3150000236408462B60FFF71AFB431C02D12B6803B106
S31500002374236038BDD4060020C9B20346024410B512
S315000023849342184601D1002003E0047801338C42BD
S31500002394F6D110BD2DE9F041074614460D4621B984
S315000023A41146BDE8F041FFF749BC2AB92546FFF7B7
S315000023B4D9FB2846BDE8F08100F01AF884420646A7
S315000023C402D8B4EB500FF4D821463846FFF736FC52
S315000023D4804608B94546ECE7B4422246294628BF5A
S315000023E43246FFF7B1FB29463846FFF7BBFBF1E758
S315000023F451F8043C181F002BBCBF0B58C01870477B
S31500002404493243205752495445204552520D0A0039
S315000024145258203D203078253032580D0A000000ED
S315000024244932432052454144204552520D0A000088
S31500002434A8040020402400005027000000000000EB
S31500002444A086010032000000010C04050607000006
S31500002454000000000000000025020000000000004B
S31500002464682400000101031C1C0000000302000094
S315000024740C080C090C0A0C0B0000000000000000FC
S31500002484000000000000000090240000000100008D
S31500002494000000200F00FFFF00000000FFFF000007
S315000024A450000000B024000000000000008000007E
S315000024B40000000000800000010000000080000011
S315000024C4020000000080000003000000104000002D
S315000024D40400000010400000050000001040000049
S315000024E40600000010400000080000000080000004
S315000024F40E000000008000000F0000000000000035
S31500002504040100000000000005010000000C0100A9
S3150000251408010000000000000B010000000C01127D
S315000025240C010000000C01120D010000000C011248
S315000025340E010000000000000F010000000001056C
S31500002544020200000000010503020000000001056C
S31500002554040200000000010505020000000000005E
S315000025640602000000000000070200000000000050
S3150000257408020000450C00000A020000000C0117C6
S315000025840B020000000C01170E020000000C0100F3
S3150000259400030000450C000003030000450C000086
S315000025A406030000450C000007030000450C00006C
S315000025B40B030000400C010700040000400C010757
S315000025C40104000010400000020400001040000056
S315000025D4030400001040000004040000000C01176E
S315000025E405040000000C011706040000000C01138A
S315000025F407040000450C000009040000000C010655
S315000026040A040000000C01060B040000000C01067D
S315000026140C040000000C01060D040000000000007C
S315000026240E040000000000000F040000000C010569
S3150000263400050000000C010501050000000C010561
S315000026440205000000000000030500000000000071
S31500002654050500000000000006050000000C010549
S3150000266408050000400C01070B050000400C01079B
S315000026740C050000040C000001060000040C000018
S3150000268402060000040C000003060000040C00000F
S31500002694050600000000000008060000040C000007
S315000026A409060000040C00000A06000000000000F1
S315000026B40B060000400C01050D060000400C010548
S315000026C40E060000000C01130F060000000C011793
S315000026D400070000000C011701070000000C011799
S315000026E402070000000C011703070000000C011785
S315000026F404070000000C011705070000000C010583
S3150000270406070000000C0105070700000000000092
S315000027140807000000400000030800000040000015
S3150000272404080000000C0113080A00007800790070
S315000027347A007B00730074007500760092019301A1
S31500002744940195010204030404040000E50F00004B
S31500002754D10D0000A10D00005D100000110C000059
S315000027641D0C00002D0C00008D100000040000005C
S315000027741828000008000000982700000200000046
S315000027848827000000000068000000686000002040
S31500002794600000200000006800000068000000607F
S315000027A400010C08000000680000006800000070CA
S315000027B40001090800000068000000680000000825
S315000027C400010208000000680000006870000000B4
S315000027D40001010800000020000000200000006045
S315000027E400010C030000002000000020000000701F
S315000027F4000109030000002000000020000000087A
S3150000280400000203000000205400002070000000B5
S3150000281400000103000000680000006800010008D1
S315000028240000006800000068000100085400002051
S3150000283460000020000000037C040020E406002061
S315000028440000000301000200080010002000232DF0
S31500002854302B2000686C4C0065666745464700309F
S3150000286431323334353637383941424344454600EC
S3150000287430313233343536373839616263646566EC
S31500002884000000004275696C7420776974682052F0
S31500002894656E6573617320416476616E6365642059
S315000028A4466C657869626C6520536F6674776172ED
S315000028B465205061636B6167652076657273696F25
S315000028C46E20362E342E3000362E342E3000000084
S309000028D400000406F0
S309000028D8F8B500BF8A
S309000028DCF8B500BF86
S309000028E031010000BC
S309000028E409010000E0
S3090100A100FFFFFFFF58
S3090100A200FFFDFFFF59
S3090100A280F8F8FFFFE5
S705000019B928
