S00F00006932635F70726A2E737265636C
S3150000000000040020FD11000075100000F911000029
S31500000010F9110000F9110000F9110000F9110000B2
S31500000020000000000000000000000000F9110000C0
S31500000030F911000000000000F9110000F91100009C
S31500000040C1090000550B0000750C0000550D00009D
S31500000050C1090000550B0000750C0000550D00008D
S315000000600348044B834202D0034B03B11847704741
S3150000007084A2000184A2000100000000064B07498B
S31500000080C91A891048BF0131491003D0044B0BB17E
S3150000009001481847704700BF84A2000184A20001EE
S315000000A00000000010B5064C237843B9FFF7D8FFCF
S315000000B0044B13B10448AFF300800123237010BD35
S315000000C01C0400200000000084A2000108B5054BB6
S315000000D01BB105490548AFF30080BDE80840FFF7AE
S315000000E0CDBF00BF000000002004002084A2000154
S315000000F00379012B06D0023B012B05D80122034BC5
S315000001001A707047024A1370704700BF3904002006
S31500000110380400200B4B70B5D3E90051284600F097
S315000001208DFB00B1FEE7044601223221284600F08D
S315000001309BF9234622462846BDE87040024900F056
S3150000014099B900BF5C130000F100000030B5002330
S3150000015086468C460D4A83B00D4D0E4C106801A99B
S3150000016002222B708DF804E08DF805C0237000F094
S3150000017043FA10B108E0237813B92B78002BFAD094
S315000001802378002B18BF122003B030BD5C1300008B
S31500000190390400203804002001232DE9F0414FF0F6
S315000001A0000C86460F46194982B00D68184E194C48
S315000001B0904628461A460DF1070186F800C08DF8CC
S315000001C007E084F800C000F017FA10B117E02378B2
S315000001D013B93378002BFAD0227802F0FF038AB9DC
S315000001E0424639462846337000F01EFA10B106E042
S315000001F0237813B93378002BFAD0237813B902B0D9
S31500000200BDE8F081122002B0BDE8F0815C13000069
S31500000210390400203804002000B583B0FFF77AFFC8
S31500000220154C55218820FFF791FF4FF47A71084647
S3150000023000F0DAFE01220DF107018820FFF7ACFF7E
S315000002404FF47A71084600F0CFFE012240F20961B0
S31500000250204600F025F84FF47A71C82000F0C4FE5D
S31500000260002240F20961204600F01AF84FF47A7134
S31500000270C82000F0B9FED4E73C040020022800D0D4
S3150000028070470249024800F0E5B800BF9813000025
S315000002903C04002008B5FFF7BFFF002008BD00BFE3
S315000002A00120CBB2984080B202B900040B0A5B0170
S315000002B003F1804303F5002398600020704700BFD8
S315000002C02DE9F84F0388DBB182464FF0000B4FF063
S315000002D00109DFF8D0800024304D4FEACB07DAF869
S315000002E0043035F8022BD919898891420AD0013495
S315000002F0032CF4D1BAF800300BF1010B5B45EAD8B8
S31500000300BDE8F88FDB5909FA04F603F0B853B3F1E8
S31500000310807FF6B298F8BB3413D0334231D1204AED
S3150000032004F1200612F81630DB09E0D012F8163078
S31500000330012123F08003C82002F8163000F054FE95
S31500000340D5E7334211D0164A04F1200112F81130D4
S31500000350DB09CCD112F81130C82043F0800302F833
S315000003601130012100F040FEC1E7012000F01AFF24
S3150000037098F8BB340120334388F8BB3400F0E2FE22
S31500000380E1E7012000F00EFF98F8BB34012023EAD4
S31500000390060388F8BB3400F0D5FEC0E7341600002B
S315000003A00030084000E00140F8B50646FFF788FF38
S315000003B0EFF31082012383F31088234F3B681BB9A8
S315000003C02249CB704023CB703B6801333B6082F3FC
S315000003D01088338823B300211D4D08E01B01134408
S315000003E045F82340328801318BB29A4218D9736896
S315000003F053F8314003EBC1029288E0034FEA12231F
S31500000400D2B2EBD502EB031055F820E024F4803C81
S315000004102EF4803E45F820E01B0145F820C0DEE7BB
S31500000420EFF31082012383F310883B6813B13B6816
S31500000430013B3B603B681BB980200449CB70C87008
S3150000044082F31088F8BD00BFC4040020000D0840E8
S315000004500008084008B5034B03600846FFF7A4FFF1
S31500000460002008BD54524F500346002059601A72AE
S31500000470704700BF84460020CCE90E32CCF8341019
S31500000480704700BF0346044ADB6800209B1AB3FA94
S3150000049083F35B090B7070474349495230B5836B50
S315000004A083B004460A466D46A3B193E8030085E887
S315000004B00300E16B1A7119601846636B9847A36BCA
S315000004C01BB195E8030083E80300002384F82B3072
S315000004D003B030BD2B46ECE730B5454B83B01B6A05
S315000004E001690193019B03F00F230193019A019D7A
S315000004F00B7C90F82C409CB9C2F30322DBB2A2EB32
S31500000500156293409B0804D1082003B030BD013B1F
S31500000510FAD04A78C2F3C014D209F8D1CC71016975
S31500000520002390F82620846980F82720026880F846
S315000005302B30C46180F82D3080F8283080F82E30BA
S31500000540036280F82F3080F83030546A227894F8AD
S3150000055001E0012A14BF4FF0040C4FF0050C62793C
S31500000560120142EA4E0294F806E042EACE124CEA42
S315000005700202D2B2CA7001690A7942F010020A7107
S3150000058001690A7963F3C3020A7101690A7963F39F
S3150000059004120A710269E179137961F3C7131371C1
S315000005A00269537943F001035371036893F90F30DD
S315000005B0002B07DB012203F01F040E495B09A24052
S315000005C041F82320BF210269537A03F0F3035372E3
S315000005D00369D97190F82C302BB1002380F82C30A8
S315000005E0002003B030BD022203695A70F8E700BF4D
S315000005F000E0014000E100E090F808C0C0E9051203
S31500000600BCF1010F80F82A3008D10022436880F837
S3150000061026C05B0080F8243080F82520002380F86F
S315000006202930FFF759BF00BF90F808C0C0E905128E
S31500000630BCF1010F80F82A300AD10022436880F805
S3150000064026C05B0043F0010380F8243080F82520A3
S31500000650012380F82930FFF73FBF00BFF0B5002423
S31500000660402203691C7003691A70066933785B06B9
S31500000670FCD5C027377006680769766A6B4D3679F0
S315000006804FF0000C46F0E0063E7406680769766A8D
S315000006904FF0B30EF678664A46F0E0067E740668BA
S315000006A00769766A634CB678634B360106F07006C6
S315000006B046F00806BE700668766A3778012F7778A6
S315000006C014BF0426052646EA47060769F6B2FE70F9
S315000006D006687668AE4214BF7726F72605696E71FE
S315000006E0056985F806C0056985F807E04E7B91F92E
S315000006F0115036015719F6B287F8006344F8250001
S3150000070005F1C00653F826706CF3104743F82670BF
S3150000071053F82660BFF35F8F01264FEA551E4FEA56
S315000007208E0E05F01F050EF1604E0EF5614E06FAAF
S3150000073005F5CEF88051CEF8005091F80DE091F90C
S315000007400F504FEA0E1E57195FFA8EFE87F800E328
S3150000075044F8250005F1C00E53F82E706CF31047CF
S3150000076043F82E7053F82E70BFF35F8F4FEA551E75
S315000007704FEA8E0E05F01F050EF1604E06FA05F5DE
S315000007800EF5614ECEF88051CEF8005091F80DE08E
S3150000079091F910504FEA0E1E57195FFA8EFE87F830
S315000007A000E344F8250005F1C00E53F82E706CF3F3
S315000007B0104743F82E7053F82E70BFF35F8F4FEA41
S315000007C0551E4FEA8E0E05F01F050EF1604E06FA15
S315000007D005F50EF5614ECEF88051CEF800504D7BF2
S315000007E091F90E102D010A44EDB282F8005344F837
S315000007F0210001F1C00253F822406CF3104443F883
S31500000800224053F82230BFF35F8F4B099B0001F063
S315000008101F0103F160438E4003F56143C3F8806115
S315000008201E609F2203691A70F0BD00BF40420F0090
S3150000083000E100E0C80400200060004070B500251B
S315000008400A78016002F5800202F51F621202026157
S315000008508A68044642600A7B0272CA6942630A6A6F
S3150000086080F82950C26380F82A50856380F82B509F
S315000008704561C0E90655056280F82C50EFF3108CEF
S31500000880012282F310880B78C3F109039A40074BC3
S315000008905E6826EA02025A605B688CF31088FFF7EE
S315000008A0DDFE034B2846E36070BD00BF00400840F4
S315000008B04349495238B500250369DD710168FFF7E0
S315000008C0CDFEB322836990F826100362036980F88F
S315000008D02C50C56180F8281080F82A50DA71284615
S315000008E038BD00BF38B5002504460369DD710168CF
S315000008F0FFF7B4FEB320012394F8262084F82C5089
S3150000090084F82820A269E5612262226984F82A50C7
S31500000910D07122692849D5712268E56092F91120C3
S31500000920500902F01F0203FA02F2203041F820209B
S31500000930BFF34F8FBFF36F8F226892F90E205009D5
S3150000094002F01F0203FA02F2203041F82020BFF322
S315000009504F8FBFF36F8F226892F91020500902F073
S315000009601F0203FA02F2203041F82020BFF34F8F16
S31500000970BFF36F8F226892F90F20500902F01F0211
S3150000098003FA02F2203041F82020BFF34F8FBFF365
S315000009906F8FEFF3108083F310882168074A097878
S315000009A0C1F109018B4051680B435360536880F3D2
S315000009B01088284638BD00BF00E100E0004008402E
S315000009C010B582B0EFF30383103B5F4A5BB2C033CE
S315000009D052F8231021F4803142F8231052F82330C4
S315000009E0EFF30383594A103B5BB252F8234094F865
S315000009F02D305BBBA369022B22D9E369012B0ED1F3
S31500000A002269137943F0100313712269137943F0B5
S31500000A10080313712269137923F0100313712368F5
S31500000A205B6ADB79002B3ED101222369DB7CDBB2DA
S31500000A308DF807309DF8073084F82D2002B010BDE0
S31500000A402269137943F040031371D6E7E369002B5B
S31500000A50F4D02268526AD279FAB9032B17D0022B46
S31500000A6026D0012B34D02269236AD17C6269D15405
S31500000A70D4E907320132013BC4E90732002BDDD14C
S31500000A8021690A7963F386120A7102B010BD2269E0
S31500000A90137943F040031371E5E705212046FFF77C
S31500000AA0FDFCE369D9E705212046FFF7F7FCBBE724
S31500000AB02269137943F0100313712269137943F005
S31500000AC0080313712269137923F010031371CAE71F
S31500000AD094F82A2072B322681D4892F90F20510912
S31500000AE002F01F0203FA02F2203140F82120BFF380
S31500000AF04F8FBFF36F8F04202169CA7942F08002BD
S31500000B00CA7121690A7942F010020A7121690A79CB
S31500000B1022F008020A7121690A7922F010020A718C
S31500000B202269507021694A7922F001024A7184F8DB
S31500000B302C3098E708212269537A03F0F7035372A1
S31500000B40236959708FE700BF00600040C804002089
S31500000B5000E100E010B5EFF30383103B424A5BB2BD
S31500000B60C03352F8231021F4803142F8231052F892
S31500000B702330EFF303833D4A103B5BB252F8234028
S31500000B8094F82730002B3FD194F82930002B3AD126
S31500000B9023685B6ADB792BB194F82B3013B9236A8F
S31500000BA0002B5BD1E3692169002B40D1CB79C022B0
S31500000BB023F08003CB71216901E0013A02D0CB79A1
S31500000BC0DB09FAD12368284A93F91030C03352F86A
S31500000BD0231021F4803142F8231052F82330236881
S31500000BE093F91030002B09DB01215A09204803F044
S31500000BF01F03603201FA03F340F822302269D379E9
S31500000C0043F04003D37110BD94F82630032B1CD05B
S31500000C1094F8242023699A7494F8282094F82730AD
S31500000C200132013B84F8282084F8273010BD236A5E
S31500000C306269D35C8B74D4E907320132013BC4E9A3
S31500000C400732002BDFD12169B0E794F82830022B58
S31500000C50DED194F83030002BDAD110BD05212046C4
S31500000C60FFF71CFC9EE700BF00600040C8040020A0
S31500000C7000E100E038B5EFF30383334A103B5BB283
S31500000C8052F8234023685B6ADB79002B48D194F83D
S31500000C9029301BB194F82730012B4FD0E369DBB123
S31500000CA02169C023CA7922F04002CA71216901E094
S31500000CB0013B02D0CA795206FAD4EFF30383103B04
S31500000CC0224A5BB2C03352F8231021F4803142F835
S31500000CD0231052F8233038BD94F82A202AB3012075
S31500000CE022681B4D92F90F20510902F01F02203194
S31500000CF000FA02F245F82120BFF34F8FBFF36F8F42
S31500000D002169CA7942F08002CA71042122695170B0
S31500000D1021694A7963F300024A7184F82C00BFE71F
S31500000D2005212046FFF7BAFBB1E708212269537A6D
S31500000D3003F0F703537223695970B1E794F8303022
S31500000D40002BADD0AAE700BFC80400200060004019
S31500000D5000E100E038B5EFF303834F4A103B5BB286
S31500000D6052F823000269537A517ADC0601F0E00159
S31500000D7051725FFA83FC03F003022BD5036959789D
S31500000D8049064DD40024012580F82B50DC710168FA
S31500000D90FFF764FCB32290F8263080F82C4080F8E8
S31500000DA02830C46180F82A400369846929460462B0
S31500000DB0DA71FFF773FBEFF30383103B374A5BB23D
S31500000DC0C03352F8231021F4803142F8231052F830
S31500000DD0233038BD002A5CD11CF0080F11D0C3693E
S31500000DE0002B45D190F82B30002B41D1B32290F83F
S31500000DF029100369C1F10301C9B2DA71FFF74EFB8D
S31500000E00D9E790F82C200CF0040342B3002BD2D083
S31500000E10C369002B3BD190F82B30002B37D1E5E787
S31500000E20002AAFD15A78C2F380115206D4D50822CF
S31500000E3080F82B105A70036801695A6A94791378FE
S31500000E40527943EAC41343EA021343F00203DBB2C6
S31500000E50CB700269537943F001035371ABE7002B62
S31500000E60A9D003685B6ADB79002BA4D00421C5E70F
S31500000E700023B321826990F826400262026980F855
S31500000E802C3080F82840C36180F82A30D1710121C6
S31500000E90B4E7036976E700BFC8040020006000409D
S31500000EA0064B074993F826001A6A51F82030C2F318
S31500000EB002620449D3400B60704700BF00E0014066
S31500000EC000040020F40400204AF2035001232F49B5
S31500000ED02F4A2DE9F043A1F8FE03A2F80431B2F837
S31500000EE004319BB2002BFAD101244FF40045294866
S31500000EF02949C0E903338560A2F80041274A8C607E
S31500000F000C600260264A01F5B83191F8265042601D
S31500000F100A6A81F8804481F83630224B436191F8A1
S31500000F203C30DA07FBD542F211740023174A0C85D0
S31500000F3081F82A3092F83C309B06FBD505244FF009
S31500000F4003090123F1254FF0F00E4FF4254CDFF88D
S31500000F504080154F88F81C91176282F8264092F857
S31500000F602640124950F82400146A114EC4F3026454
S31500000F70E04030600D730B7281F80CE082F830307F
S31500000F8082F85230A2F8FEC3BDE8F08300E00140CB
S31500000F9000C001400004002000700040002D310117
S31500000FA000127A0000C2EB0B211201200020004043
S31500000FB0F404002010B50024064B012083F82840D5
S31500000FC000F0F0F8044B012083F8BB44BDE8104064
S31500000FD000F0B8B80030084000E00140A0F1010080
S31500000FE00028FBD1704700BF1F4B204A1B6800FB3F
S31500000FF001F1934213D302F1854202F5071203F57C
S31500001000741302F6834203F6FF03A2FB03231B0DB0
S31500001010A3FB01314FF0FF30F9B1FFF7DFBF4FF40B
S315000010207A7210B4A1FB02C41148B0FBF3F34FF07F
S31500001030FF3044B9BCFBF3FC4FEA9C0088B15DF875
S31500001040044BFFF7CBBF9B00B1FBF3F1A1FB0212F0
S31500001050002AF4D1084620B1F1E71846002BDCD16E
S3150000106070475DF8044B7047F404002000127A00C4
S3150000107000CA9A3B70B500240B4B0C4EB3F82021E6
S31500001080B3F84051ADB2154025FA04F3DB0704D599
S3150000109056F82430E0B203B198470134102CF3D14E
S315000010A0014BA3F8305170BD00600040840400205D
S315000010B030B5032085B000F075F800256FF0FF000D
S315000010C04FF0FF321B4B1C4C986421462B464FF0C9
S315000010D0010ECDE90122039231F8020F0EFA03FC4C
S315000010E0013310B1012522EA0C02082BF4D1F5B127
S315000010F00192124B0F4903200A67C3F88022029A15
S315000011004A67C3F88422039A8A67C3F8882200F0E4
S3150000111019F800230A4834F8022F03F1C0010133FD
S315000011200AB140F82120082BF5D105B030BD4FF0AB
S31500001130FF32DEE7008000402216000000E100E0FA
S3150000114000600040EFF31081012383F31088124BF7
S3150000115033F8102092B22AB133F81020013A92B235
S3150000116023F8102033F810309BB293B910B40B4A11
S315000011700B4CB2F8FE3334F810009BB243F425430F
S3150000118023EA0003A2F8FE3381F310885DF8044BCE
S31500001190704781F310887047E804002000E00140A2
S315000011A03417000030B4EFF31081012383F3108865
S315000011B00E4A32F810309BB26BB90D4C0D4DB4F897
S315000011C0FE3335F810C09BB243EA0C0343F42543C3
S315000011D09BB2A4F8FE3332F8103001339BB222F8EA
S315000011E0103081F3108830BC704700BFE80400203F
S315000011F000E001403417000000BE704708B500F05B
S3150000120035F8FFF747F8FEE7F8B5174F05463E688D
S31500001210A6B17C6806EB460604EB860602E00C34B3
S31500001220B4420BD0637AAB42F9D1D4E90002002173
S31500001230121A0C3400F07CF8B442F3D1BE6896B1B1
S31500001240FC6804EB061602E01034A6420BD0637B62
S31500001250AB42F9D1D4E90002A168121A103400F0A9
S315000012606FF8A642F3D1F8BD5C1600004FF470018A
S31500001270274B284A70B50020C3F888109A60FEF7FD
S31500001280FDFFFFF721FE0120FEF7F8FF224B83F357
S315000012900A880020FFF7B8FFFFF702FEFFF78AFE75
S315000012A00320FFF77FFF00234FF6FF701B4903F172
S315000012B0080201330C2B21F81200F8D10024032078
S315000012C0FFF740FF0320FFF76DFF154B03205C601F
S315000012D09C60DC601C61FFF735FF0220FEF7CEFF45
S315000012E00120FFF791FF0F4D0F4B5B1BA3424FEA07
S315000012F0A30605DD55F8043B01349847A642F9DC00
S31500001300FFF7D6FEBDE87040002000F00FB800BF22
S3150000131000ED00E00000000000000020000D084085
S3150000132000000E40981700009C170000704700BF91
S3150000133002440346934200D1704703F8011BF9E7C4
S315000013400A44431E914200D1704710B511F8014B73
S31500001350914203F8014FF9D110BD0000440400206A
S31500001360681300003C16000000000000A086010083
S3150000137032000000010C0405060700000000000012
S3150000138000000000000000000000000090130000B4
S315000013900101031C1C00000050000000A413000003
S315000013A00000000000800000000000000080000037
S315000013B00100000000800000020000000080000024
S315000013C00300000010400000040000001040000070
S315000013D0050000001040000006000000104000005C
S315000013E008000000008000000E00000000800000E1
S315000013F00F000000000000000401000000000000D3
S3150000140005010000000C01000801000000000000BA
S315000014100B010000000C01120C010000000C01126F
S315000014200D010000000C01120E010000000000007A
S315000014300F01000000000105020200000000010586
S31500001440030200000000010504020000000001057F
S315000014500502000000000000060200000000000077
S31500001460070200000000000008020000450C000012
S315000014700A020000000C01170B020000000C011705
S315000014800E020000000C010000030000450C0000E5
S3150000149003030000450C000006030000450C000095
S315000014A007030000450C00000B030000400C010779
S315000014B000040000400C0107010400001040000079
S315000014C00204000010400000030400001040000069
S315000014D004040000000C011705040000000C0117AD
S315000014E006040000000C011307040000450C000070
S315000014F009040000000C01060A040000000C0106A5
S315000015000B040000000C01060C040000000C010690
S315000015100D040000000000000E04000000000000A2
S315000015200F040000000C010500050000000C010579
S3150000153001050000000C0105020500000000000086
S315000015400305000000000000050500000000000083
S3150000155006050000000C010508050000400C010707
S315000015600B050000400C01070C050000040C0000F0
S3150000157001060000040C000002060000040C000036
S3150000158003060000040C0000050600000000000031
S3150000159008060000040C000009060000040C000008
S315000015A00A060000000000000B060000400C0105C2
S315000015B00D060000400C01050E060000000C01138C
S315000015C00F060000000C011700070000000C0117B1
S315000015D001070000000C011702070000000C0117AC
S315000015E003070000000C011704070000000C011798
S315000015F005070000000C010506070000000C0105A8
S315000016000707000000000000080700000040000077
S31500001610030800000040000004080000000C01134D
S31500001620080A0000780079007A007B0073007400D5
S315000016307500760002040304040400003D0800005F
S3150000164029060000F9050000B5080000690400003D
S315000016507504000085040000E50800000400000091
S3150000166004170000080000008416000002000000B5
S3150000167074160000000000680000006800000020EA
S315000016800000002000000068000000680000006004
S3150000169000010C08000000680000006800000070EF
S315000016A0000109080000006800000068000000084A
S315000016B000010208000000680000006860000000E9
S315000016C0000101080000002000000020000000606A
S315000016D000010C0300000020000000200000007044
S315000016E0000109030000002000000020000000089F
S315000016F0000002030000002000000020600000003F
S3150000170000000103000000680000006800010008F6
S3150000171000000068000000680001000800000020CA
S3150000172000000020000000031C040020F804002034
S315000017300000000301000200080010002000000065
S315000017404275696C7420776974682052656E65739A
S31500001750617320416476616E63656420466C6578CA
S3150000176069626C6520536F6674776172652050619B
S31500001770636B6167652076657273696F6E20362EBE
S31500001780342E3000362E342E3000000000000406C1
S30900001790F8B500BFE3
S30900001794F8B500BFDF
S30900001798CD0000007A
S3090000179CA50000009E
S3090100A100FFFFFFFF58
S3090100A200FFFDFFFF59
S3090100A280F8F8FFFFE5
S705000011FDEC
