S00F00006932635F70726A2E737265636C
S315000000004005002075290000D9270000712900004D
S315000000107129000071290000712900007129000072
S315000000200000000000000000000000007129000030
S3150000003071290000000000007129000071290000EC
S315000000402D180000A1170000BD18000005190000BA
S3150000005025210000B9220000D9230000B9240000A0
S31500000060FFFFFFFF00000000646C000000000000BE
S315000000700000000040003500030000000000000002
S3150000008010230000D06F0000440000206C06002002
S3150000009068070020CC06002074060020000000003F
S315000000A0000000008000000040020000E000002088
S315000000B050020000E200002060020000E400002080
S315000000C068040000E600002097040000000000001D
S315000000D0000000008000000040100000A400002086
S315000000E050080000B400002060040000BC0000209E
S315000000F068200000C00000209720000000000000DB
S31500000100070000000050FF38FED4FE70FE0CFDA86C
S31500000110FD44FCE00052026700CD03342303A343F1
S3150000012000000649064A064B064C064D064E069743
S3150000013006D70657064E064D064C064B064A865906
S3150000014000500028C3E3000080400000F0000020BB
S31500000150000000002808002090080020F808002071
S315000001600000000000000000000000000000000089
S315000001700000000000000000000000000000000079
S315000001800000000000000000000000000000000069
S311000001900000000000000000000000005D
S315000001A00348044B834202D0034B03B11847704700
S315000001B03C0100203C01002000000000064B0749DE
S315000001C0C91A891048BF0131491003D0044B0BB13D
S315000001D001481847704700BF3C0100203C01002041
S315000001E00000000010B5064C237843B9FFF7D8FF8E
S315000001F0044B13B10448AFF300800123237010BDF4
S315000002005C0500200000000084A2000108B5054B33
S315000002101BB105490548AFF30080BDE80840FFF76C
S31500000220CDBF00BF000000006005002084A20001D1
S315000002304379002B49D04FF0000C9FED244ADFEDA7
S31500000240244A9FED245ADFED245A70B50B790CF140
S31500000250010E06EE903A83684C7913F80C5013F8A9
S315000002600E308E7803EB052304FA83F307EE903AFB
S31500000270F8EEE66A07EE106ACB78F8EEE77A06EE55
S31500000280103AB8EE477A76EE846AB8EEC66A27EE7A
S31500000290057A67EEA67A37EE067A77EEE47A67EEA7
S315000002A0677A87EEA57AFCEEC77A17EE903AC3F323
S315000002B0072502F80C5002F80E3043790CF10204BF
S315000002C05FFA84FC6345C1D870BD704700002044C6
S315000002D00000FA480000804300803B4B704700BF97
S315000002E02DE9F04F2DED028B3221B74BCFB0DB68F5
S315000002F0D3E906421192B54A1D6A22623032626221
S3150000030021705B692361EFF31081012383F3108869
S31500000310AF4A13681BB94026AE48C370C67013684F
S315000003200133136081F31088AB49D1F8DC3023F038
S31500000330011323F4404343F00503C1F8DC30EFF327
S315000003401081012383F31088136813B11368013BEE
S31500000350136013681BB980209E4AD370D07081F356
S3150000036010884FF47A71322002F0F0F9022300214E
S3150000037030AA322000F06EFD41F22302BDF8C030F3
S3150000038059BA9342A18140F04681671C06233A463A
S315000003902021322000F05EFD07232269262132202B
S315000003A000F058FDB721322000F02CFC8B4A0346A2
S315000003B0782130A803F096FE1B2130A800F0B2FA8F
S315000003C0002312AA3946206A1293FFF731FF216AE9
S315000003D032204B79097900F0DDFB216A32204B7B14
S315000003E00A69097B00F0D6FB216A32204B7D8A69B7
S315000003F0097D00F0CFFB216A32204B7F0A6A097F14
S3150000040000F0C8FB236A932132201A7800F098FB8B
S31500000410C82602E0002E00F0ED804FF47A713220FB
S3150000042002F094F99421322000F0ECFB020606F16A
S31500000430FF36EFD4002E00F0DD80226A034692F8E4
S3150000044025007821019092F8242030A80092644A71
S3150000045003F048FE014630A800F064FA216A322013
S3150000046091F8253013AA91F8241000F0F3FC139BA1
S3150000047026691BBAA36096F806C03378CDF814C077
S3150000048096F805C0574ACDF810C096F804C07821F2
S31500000490CDF80CC096F803C030A8CDF808C096F881
S315000004A002C0CDF804C07678009603F01BFE1D212D
S315000004B030A800F037FA23894B4A049363897821E0
S315000004C003939DF84F3030A802939DF84E30019368
S315000004D09DF84D3000939DF84C3003F003FE014625
S315000004E030A800F01FFA0023666A3946304618AA7B
S315000004F0CDE91833CDE91A33FFF79AFE9DF861303E
S315000005003A4A00939DF86F3050210E939DF86E3055
S315000005101CA80D939DF86D300C939DF86C300B93D1
S315000005209DF86B300A939DF86A3009939DF86930FF
S3150000053008939DF8683007939DF8673006939DF8F9
S31500000540663005939DF8653004939DF864300393F7
S315000005509DF8633002939DF8623001939DF86030F8
S3150000056003F0C0FD2F211CA800F0DCF97379317966
S31500000570322018AA00F00EFB737B3269317B3220E1
S3150000058000F008FB737DB269317D322000F002FB7A
S31500000590737F326A317F322000F0FCFA119803F043
S315000005A0EBF80646002846D00346114A782130A8C3
S315000005B003F098FD014630A800F0B4F94FB0BDEC49
S315000005C0028BBDE8F08F00BFD46C00004400002011
S315000005D0F4070020000D084000080840B06900003C
S315000005E0F06900002C6A0000586A00008C6A00005E
S315000005F0DC6A00009F4D30AC0FCD0FC495E80F00AC
S3150000060084E80F001F2130A800F08CF94FB0BDEC34
S31500000610028BBDE8F08F6FF00303974A782130A86C
S3150000062003F060FD242130A800F07CF94FB0BDEC4A
S31500000630028BBDE8F08F9FED918AA3897821904ABD
S3150000064030A803F04FFD212130A800F06BF91CAB58
S3150000065014938C4BDFF8488216938B4B15961793A1
S31500000660636A932132201A7800F06AFA4FF47A719D
S3150000067040F6B83002F06AF8322602E0002E00F0AA
S31500000680BC804FF47A71642002F060F89421322025
S3150000069000F0B8FA030606F1FF36EFD4002E00F09C
S315000006A0AC80616A322091F825301CAA91F824109A
S315000006B000F0D0FBBDF87230BDF87E2061895BBAD0
S315000006C09BB252BA8B4290B240F2A88022899342E2
S315000006D080F0A48007EE901A591AB8EE677A07EEF2
S315000006E0901AD21A06EE902AF8EEE77AF8EEE66A43
S315000006F067EE877A87EEA67AFDEEC77A17EE902A1E
S31500000700782101920090614A30A803F0EBFC014683
S3150000071030A800F007F900222146119814AB009585
S3150000072003F066F8012800F09880002878D195ED4E
S31500000730126A95ED137AD5ED116AD5ED147AF2EEBB
S31500000740045A26EE086A27EE087A66EEA56A67EE70
S31500000750A57ABDEEC66ABDEEC77AFDEEE66AFDEE87
S31500000760E77A16EE10CA4FF47A7917EE103A16EEBB
S31500000770906A17EE907A88FB0CAB4FEAEC7ACAEBDC
S31500000780AB1A09FB1ACCCDE901AC88FB03CBDFF829
S3150000079014E13F4A8EFB06CA8EFB07CE4FEAE37C86
S315000007A0CCEBAB1C09FB1C33CDE905C34FEAE77C58
S315000007B0CCEBAE0CCDF80CC0F3170CEB8C0CC3EBEA
S315000007C0AA03A7EB4C07049703EB8307A6EB4706A0
S315000007D0782130A8009603F085FC014630A800F089
S315000007E0A1F86B6C18A81893AB6C19932B6D1A9320
S315000007F0EB6C1B9300F0C0F832E7264F30AE0FCFFC
S315000008000FC697E8030046F8040B0B0C26F8021BEC
S3150000081030A81621337000F085F821E700226FE733
S31500000820D5ED0C7AFDEEE77ACDED027AD5ED067AB6
S31500000830FDEEE77ACDED017AD5ED007AFDEEE77AA9
S3150000084003467821CDED007A134A30A803F04AFC1E
S31500000850014630A800F066F802E7104F30AE0FCF21
S315000008600FC697E8030086E80300172130A800F0BA
S3150000087059F8F5E6D06900008869000000007A445E
S31500000880FC6A0000000048420000A041386B0000EE
S315000008909C6B0000206B0000746B00005C6B00001A
S315000008A0D34D6210676666660379013B1F2B14D829
S315000008B0DFE803F018141313131313101313131391
S315000008C013131310131313131313131313131313F5
S315000008D0131313100122054B1A7070470122044BA3
S315000008E01A7070470122034B1A7070477805002072
S315000008F07A0500207905002008B50749074800F069
S3150000090075FD00B1FEE7034602460549034800F0BF
S3150000091043FD00B1FEE708BDA06C0000C405002041
S31500000920A9080000D8B10A46C9B138B500230E4D52
S315000009300E4C01460E482B70237000F005FD68B979
S315000009400C4B03E0227822B9013B03D32A78002A14
S31500000950F8D033B12378002B18BF122038BD0320FE
S315000009607047142038BD00BF7A05002078050020A6
S31500000970C405002040420F002DE9F041B2EE045AB2
S3150000098090ED006AD0ED026ADFED485A90ED017AEB
S31500000990D0ED037A26EE056A66EE856A27EE257A9D
S315000009A067EEA57A40F6AA03BCEEC66AFCEEE66AD6
S315000009B04FF0000EBCEEC77AFCEEE77A92B0ADF8C7
S315000009C00430012316EE107A16EE906AF44617EEFE
S315000009D0101A17EE902A8DF8063041F221004FF6D4
S315000009E0FF73C7F3072868F3070EBFB267F30F2E2E
S315000009F0C6F3072767F3070CB6B266F30F2CC1F3ED
S31500000A00072666F3174E89B261F31F6EC2F30721FC
S31500000A1061F3174C92B262F31F6C0DF10E0501AC37
S31500000A20CDF807E0CDF80BC0082214F8011F83EAC1
S31500000A30012319B25B00002902F1FF329BB2B8BF55
S31500000A40434012F0FF02F4D1AC42EDD14FF0550C09
S31500000A500524174A190A174F8DF80F108DF8103014
S31500000A6092E803000DF103050590ADF818100DF19D
S31500000A7011068DF811C005A815F8013FC4F1320121
S31500000A8020443A4603F02EFBAE420444F3D105ABB4
S31500000A90094AC4F13201181903F024FB014605A8DE
S31500000AA02144FFF73FFF12B0BDE8F08100007A4411
S31500000AB0D46B0000DC6B0000606C000000B54FF4E6
S31500000AC0806183B01A4A1B4801F02CF840F20141BC
S31500000AD0174A184801F026F8EFF31081012383F333
S31500000AE01088154B5A6822F400725A605B6881F3CD
S31500000AF0108800234021114A137011700193019B45
S31500000B00632B05DC019B01330193019B632BF9DD0C
S31500000B101C224FF0C00C30208021084B83F800C007
S31500000B2098705A741A74197003B05DF804FB00BF0C
S31500000B30400001077C0500200040084000F0094005
S31500000B4030B4134C6378DB09FCD16378104D43F065
S31500000B50020363706B7ADB09FCD04000C0B20C4C18
S31500000B60A874637ADB09FCD00948A174437ADB09CF
S31500000B70FCD0074982744B7A5B06FCD54B78044A55
S31500000B8043F008034B705378DB09FCD130BC704747
S31500000B9000F0094010B41A4C94F801C05FEADC1C5E
S31500000BA0FAD194F801C04CF0020C84F801C0144C40
S31500000BB094F809C05FEADC1CFAD04000C0B2A07409
S31500000BC00F4C607AC009FCD0A1744BB10C48134499
S31500000BD0417AC909FCD012F8011B93428174F7D1FE
S31500000BE0074A537A5B06FCD55378054943F0080358
S31500000BF053704B78DB09FCD15DF8044B704700BF9E
S31500000C0000F0094010B42F4A5378DB09FCD1537821
S31500000C102C4C43F002035370637A1B06FCD54FEA53
S31500000C20400C5FFA8CF32748A374437A1A06FCD566
S31500000C30244A8174537A5B06FCD5537A214923F002
S31500000C4040035372537843F0040353704B785C07A8
S31500000C50FCD41C494B7A1806FCD54CF0010C5FFA03
S31500000C608CFC184A81F812C0537A9906FCD5117982
S31500000C70144B41F040011171117941F010011171CD
S31500000C80117941F008011171D27C5A7A9206FCD58D
S31500000C9059780C4A41F008015970D87C1979C0B2CC
S31500000CA021F040011971197921F00801197119799A
S31500000CB021F0100119715378DB09FCD15DF8044B62
S31500000CC0704700BF00F0094000B540F20C5183B0F8
S31500000CD01F4A204800F026FF40F20B511C4A1D48CF
S31500000CE000F020FFEFF31081012383F310881A4BE5
S31500000CF05A6822F480725A605B6881F31088002378
S31500000D004021164A137011700093009B632B05DC7B
S31500000D10009B01330093009B632BF9DD0023C02168
S31500000D200E4A11700193019B632B05DC019B013375
S31500000D300193019B632BF9DD4D2250208021074B47
S31500000D4098705A741A74197003B05DF804FB00BFEA
S31500000D50500001077C0500200040084000F10940D2
S31500000D6010B53B4C94F801C04CF0020C84F801C05D
S31500000D7094F809C05FEADC1CFAD04FEA400C5FFA2F
S31500000D808CF0A074324C607AC009FCD03048A17453
S31500000D90417A4C06FCD5417841F0040141702C485B
S31500000DA041784907FCD42A4C617AC909FCD04CF039
S31500000DB0010C5FFA8CFC264884F812C0417A8C0636
S31500000DC0FCD50179012B41F0400101712BD0C17C8A
S31500000DD003B34FF0000C1E489C1E013A03F1FF3E80
S31500000DE0417A8906FCD5A44507D1017941F0100165
S31500000DF00171017941F008010171F4450CF1010C12
S31500000E0003D1417841F008014170C17C634502F885
S31500000E10011FE5D10E4A137923F04003137153786D
S31500000E20DB09FCD110BD0379094943F010030371B6
S31500000E30037943F008030371C37C4B7A9806FCD50B
S31500000E404B7843F008034B70CB7C1370E2E700BF8E
S31500000E5000F1094010B5434C94F801C05FEADC1C70
S31500000E60FAD194F801C04CF0020C84F801C03D4C54
S31500000E7094F809C05FEADC1CFAD04FEA400E5FFA2C
S31500000E808EF0A074374C94F809C05FEADC1CFAD0E7
S31500000E903448A174417A4C06FCD5417841F00401EE
S31500000EA04170304841784907FCD42E4C617AC90913
S31500000EB0FCD04EF0010E5FFA8EFE2A4884F812E04E
S31500000EC0417A8C06FCD50179012B41F04001017174
S31500000ED033D0C17C03B34FF0000C22489C1E013A6C
S31500000EE003F1FF3E417A8906FCD5644507D10179B5
S31500000EF041F010010171017941F008010171E645E7
S31500000F000CF1010C03D1417841F008014170C17C1C
S31500000F10634502F8011FE5D1124A137923F0400315
S31500000F201371137923F008031371137923F0100357
S31500000F3013715378DB09FCD110BD0379094943F0DD
S31500000F4010030371037943F008030371C37C4B7AE2
S31500000F509806FCD54B7843F008034B70CB7C137096
S31500000F60DAE700BF00F009402DE9F0419CB0FFF739
S31500000F70C3FCFFF7A3FDFFF7A7FE00213220FFF712
S31500000F8041FE03AC232803464FF06401204625D0DA
S31500000F90174A03F0A7F81C212046FFF7C3FCDFF829
S31500000FA05C80144F02AA032300216820FFF7D8FEB5
S31500000FB09DF80A609DF8095042469DF80830642164
S31500000FC02046CDE9005603F08DF828212046FFF78C
S31500000FD0A9FC3946052001F0B9FBE3E7064A03F010
S31500000FE081F82A212046FFF79DFCFFF779F9D6E71D
S31500000FF0146C000040420F00E46B0000346C0000EB
S31500001000022800D070470249024800F081BD00BFA7
S31500001010346D00007C05002008B5FFF7A5FF002011
S3150000102008BD00BF0620704706207047062070479F
S315000010300620704730B5C56D87B00291A96A6B6A04
S31500001040E8690491A9692D6A0593144602AB00224A
S31500001050009502F0CDFB00281CDB2B46214605F14E
S31500001060340E53F804CB734541F804CBF9D10B4B3E
S3150000107001280CBF18460020AA6BA2636B6CA36400
S31500001080AB6CE364EB6C23652B6D63656B6DE3659D
S3150000109007B030BD012007B030BD00BF010003001E
S315000010A008B50649C36D064AD86959629A6202F0C4
S315000010B063FB003818BF012008BD00BF0000A04137
S315000010C000004842062070470620704706207047F9
S315000010D00620704706207047062070470620704796
S315000010E006207047062070470620704730B5036813
S315000010F0027AD96DD86E83B08C69009062B98DF88A
S31500001100042029481D68854218D0012183F8501013
S3150000111083F8522003B030BD06228DF80420224900
S3150000112018688842F1D193F8462093F847201B6F40
S31500001130002BEFD06846984703B030BD93F84620A1
S315000011408AB1097893F84520012920D00B291ED0B1
S31500001150100624D401228DF8042083F848200022AA
S3150000116083F84620E3E793F84720002ADFD01A7970
S31500001170510608D4120644BF03228DF8042000222B
S3150000118083F84720D3E704228DF80420F7E7606A46
S3150000119002F01F01427F5208013A8A42DAD0022247
S315000011A08DF80420DBE700BF444F4D5A034600226A
S315000011B030B419604D68064C5D608D6810469D60C0
S315000011C00D69DD61C9681A761962DC6030BC70474A
S315000011D021332C3203460022596810464A60DA60F1
S315000011E0704700BF00F02AB800F04AB884B00DF18D
S315000011F0040C8CE80E009CE80E0004B000F058B811
S3150000120043685A68824217D070B59D688668AB6895
S315000012100446327B1B69B1682868984758B96268EA
S3150000122003465460A96822464C692868A446F169B9
S31500001230BDE87040604770BD002070472DE9F04161
S31500001240436804460E461746D3F80880FFF7D8FFD2
S31500001250A0B9227E0546002A03461ABF3D463046FF
S31500001260002025616061D8F808403A466468314636
S31500001270A446D8F80000BDE8F0416047BDE8F0811B
S315000012802DE9F041436804460F4615469E68FFF770
S31500001290B7FF58B9C4E904000346B0682A46846813
S315000012A03946A4463068BDE8F0416047BDE8F081A4
S315000012B030B585B004AC04E90E00436804469D6869
S315000012C0FFF79EFF80B9029A9DF80D300199C4E997
S315000012D00432AA68012394682868A4469DF80C2065
S315000012E005B0BDE83040604705B030BD70B5046854
S315000012F003796268216A023B84B0012B92680191EE
S3150000130016D8002561698DF80C50C1B19368106834
S315000013105E6822692B46B047C4E9045530B1032202
S31500001320E3698DF80C200BB101A8984704B070BD95
S3150000133093681068DB68984703238DF80C30E369DF
S31500001340002BF1D104B070BD10B4046AA37803F089
S315000013507B03A3708378046A03F00303D21A0B4459
S31500001360C0E90332A37843F08003A370837803F0C7
S315000013700303022B06D0036A0A780020DA705DF8B0
S31500001380044B70470B88026A43F47E43D3810020E6
S315000013905DF8044B704700BF84460020CCE90A3252
S315000013A0CCF82410704700BFF0B5846A85B00546B6
S315000013B00F4694466E46B4B194E80F0086E80F00D7
S315000013C0EB6920461B78A760236084F804C0EB6AAB
S315000013D0E3606B6A9847AC6A1CB196E80F0084E834
S315000013E00F0005B0F0BD3446EAE700BF0122034610
S315000013F00878824012F0060F05D0CA695268127842
S31500001400120700F1CB8100224FF0010C00F580009D
S315000014102DE9F04100F58C500002C3E907101A705F
S315000014204D6998785D628D696CF30100C3E90A2500
S3150000143098704878D44C904214BF65460225987837
S3150000144065F30100987091F90B5091F80AE068096C
S3150000145005F01F0620300CFA06F644F82060BFF3AC
S315000014604F8FBFF36F8FC94805F1C00650F826703D
S3150000147062F3104740F8267050F82660C44E4FEAD3
S315000014800E1E67195FFA8EFE87F800E346F82530D0
S3150000149091F9055091F804E06F0905F01F0820370F
S315000014A00CFA08F844F82780BFF34F8FBFF36F8F0D
S315000014B005F1C00750F8278062F3104840F82780EE
S315000014C050F827704FEA0E1E67195FFA8EFE87F8EE
S315000014D000E346F8253091F9075091F806E06F09C8
S315000014E005F01F0820370CFA08F844F82780BFF3E8
S315000014F04F8FBFF36F8F05F1C00750F8278062F357
S31500001500104840F8278050F827704FEA0E1E6719DA
S315000015105FFA8EFE87F800E346F8253091F9095008
S3150000152091F808E06F0905F01F0820370CFA08F853
S3150000153044F82780BFF34F8FBFF36F8F05F1C007C5
S3150000154050F8278062F3104840F8278050F82700AB
S315000015504FEA0E10C0B22C4484F8000346F825303A
S31500001560EFF310868CF310884FF000450C7889480D
S31500001570E540446824EA05044460406886F3108820
S31500001580186A8270186A0271186A4272186A827240
S31500001590186AC272186A428340F2F93208780CFA65
S315000015A000FC1CEA020F02D040201A6AD0740625FD
S315000015B0012240F2F9301C6A25770C78A2400242DB
S315000015C040F0CA80CA7848788C78D200032842EA6C
S315000015D0041200F0D58000280CBFE220F2201C6A1D
S315000015E0D2B222701A6A9071CC69227B082A00F066
S315000015F0C380186A520002F0020242730025627824
S31500001600A078D201400100F02000D2B20243186A4D
S315000016100572207802380128186A40F2A280D2B2F8
S31500001620C27160681A6A847854704578147865F3D4
S3150000163001041470C4789474D479007804F0A30477
S3150000164000F05C002043D0710020C3E90300C3E929
S315000016500500DC694D4A94F90540CD6904F1C001E5
S3150000166052F8216095F800C060F3104642F82160F8
S315000016700CF0030C52F82110BFF35F8F4FF0010EF0
S315000016806109890004F01F0401F1604101F561411F
S315000016900EFA04F4C1F880410C60D96991F90B4047
S315000016A004F1C00152F8216060F3104642F821604F
S315000016B052F82110BFF35F8F6109890004F01F04FF
S315000016C001F160410EFA04F401F56141C1F880416F
S315000016D00C60D96991F9074004F1C00152F8216004
S315000016E060F3104642F8216052F82110BFF35F8F75
S315000016F06109890004F01F0401F160410EFA04F447
S3150000170001F56141C1F880410C60D96991F9091070
S3150000171001F1C00452F8246060F3104642F82460D8
S3150000172052F82420BFF35F8F4A09920001F01F018F
S3150000173002F160420EFA01F102F56142C2F880112F
S3150000174011601A6A4CF0700C82F802C06989124A5C
S3150000175019815A60BDE8F0814FF478401A6A908288
S3150000176030E7FF2545702078022808BF42F01002B6
S31500001770186AD2B2C27167E70A201A6A50733DE747
S31500001780F22042F040022AE700E100E0006000405B
S31500001790F80700200040084055494353032070478E
S315000017A0EFF30383103B1F4A5BB203F1C00152F80B
S315000017B0210020F4803042F8210052F821201A4AF4
S315000017C052F82300C3691B6983B1036903B17047EB
S315000017D0026A0021937803F07F0343F004039370B9
S315000017E0436AC160C3B18022FFF7DEBD0369026AA6
S315000017F0002BEED08378C16803F00303022B0CD0D4
S315000018000B78D3708278D0E9031302F003029B1A97
S315000018101144C0E90313D9E770470B8843F47E43AC
S31500001820D381EFE700600040F807002010B582B0D2
S31500001830EFF30383103B1F4A5BB203F1C00152F87A
S31500001840210020F4803042F8210052F821201A4A63
S3150000185052F82340A27802F00303022B236A0CBF3E
S31500001860198A5979A3690CBFC1F30801C9B201915C
S3150000187043B9636AB3B10422204602B0BDE8104002
S31500001880FFF792BD02F0030201A9606902F06EFC47
S31500001890D4E90521A37803F003031A44C91AC4E95D
S315000018A0052109B102B010BD636A002BFAD00122EE
S315000018B0E2E700BF00600040F807002010B5EFF334
S315000018C003830E4A103B5CB252F82400026A9378F6
S315000018D003F07B039370436A1BB102220021FFF7DA
S315000018E063FD074A04F1C00352F8231021F4803146
S315000018F042F8231052F8233010BD00BFF80700202D
S315000019000060004010B5EFF303831A4A103B5CB247
S3150000191052F82400837803F00303022B036A0CBFFA
S31500001920198A597993F804C00CBFC1F30801C9B2EA
S315000019301CF0100F0CF0380206D093F81CC01CF0F7
S31500001940010F08BF42F0400293F804C00CF0C70C28
S3150000195083F804C0436A0BB1FFF726FD064A04F17B
S31500001960C00352F8231021F4803142F8231052F8B4
S31500001970233010BDF8070020006000402DE9F84F25
S315000019800388DBB182464FF0000B4FF00109DFF808
S31500001990D0800024304D4FEACB07DAF8043035F812
S315000019A0022BD919898891420AD00134032CF4D12B
S315000019B0BAF800300BF1010B5B45EAD8BDE8F88FA9
S315000019C0DB5909FA04F603F0B853B3F1807FF6B297
S315000019D098F8BB3413D0334231D1204A04F12006A3
S315000019E012F81630DB09E0D012F81630012123F088
S315000019F08003C82002F8163000F0A8FED5E733426F
S31500001A0011D0164A04F1200112F81130DB09CCD1AD
S31500001A1012F81130C82043F0800302F8113001217A
S31500001A2000F094FEC1E7012000F06EFF98F8BB3489
S31500001A300120334388F8BB3400F036FFE1E701208C
S31500001A4000F062FF98F8BB34012023EA060388F809
S31500001A50BB3400F029FFC0E72870000000300840C2
S31500001A6000E00140F8B50646FFF788FFEFF3108265
S31500001A70012383F31088234F3B681BB92249CB709F
S31500001A804023CB703B6801333B6082F31088338878
S31500001A9023B300211D4D08E01B01134445F82340E4
S31500001AA0328801318BB29A4218D9736853F83140A3
S31500001AB003EBC1029288E0034FEA1223D2B2EBD5C0
S31500001AC002EB031055F820E024F4803C2EF4803E0F
S31500001AD045F820E01B0145F820C0DEE7EFF3108251
S31500001AE0012383F310883B6813B13B68013B3B60DD
S31500001AF03B681BB980200449CB70C87082F31088FC
S31500001B00F8BD00BFF4070020000D0840000808409B
S31500001B1008B5034B03600846FFF7A4FF002008BD85
S31500001B2054524F5070B5012686B001AB03A80C463F
S31500001B3015460493ADF80C60ADF808100192FFF756
S31500001B401DFFEFF3108286F310881D490B681BB941
S31500001B5040261C48C370C6700B6801330B6082F3C5
S31500001B601088EA034FEA1423E4B219D41B01164A7B
S31500001B70234442F82350EFF31082012383F31088A5
S31500001B800B6813B10B68013B0B600B681BB9802017
S31500001B900C49CB70C87082F31088002006B070BD67
S31500001BA0094A04EB031052F820601B0126F4803624
S31500001BB042F8206025F4803642F82060D7E700BF5F
S31500001BC0F4070020000D08400008084003460020E6
S31500001BD059601A72704700BF84460020CCE90E3265
S31500001BE0CCF83410704700BF0346044ADB68002077
S31500001BF09B1AB3FA83F35B090B707047434949524A
S31500001C0030B5836B83B004460A466D46A3B193E8AC
S31500001C10030085E80300E16B1A7119601846636BCF
S31500001C209847A36B1BB195E8030083E803000023E4
S31500001C3084F82B3003B030BD2B46ECE730B5454B6E
S31500001C4083B01B6A01690193019B03F00F23019383
S31500001C50019A019D0B7C90F82C409CB9C2F303229B
S31500001C60DBB2A2EB156293409B0804D1082003B0B7
S31500001C7030BD013BFAD04A78C2F3C014D209F8D17C
S31500001C80CC710169002390F82620846980F827200A
S31500001C90026880F82B30C46180F82D3080F8283037
S31500001CA080F82E30036280F82F3080F83030546A86
S31500001CB0227894F801E0012A14BF4FF0040C4FF08B
S31500001CC0050C6279120142EA4E0294F806E042EAF5
S31500001CD0CE124CEA0202D2B2CA7001690A7942F007
S31500001CE010020A7101690A7963F3C3020A71016974
S31500001CF00A7963F304120A710269E179137961F3CF
S31500001D00C71313710269537943F0010353710368D2
S31500001D1093F90F30002B07DB012203F01F040E4955
S31500001D205B09A24041F82320BF210269537A03F0E0
S31500001D30F30353720369D97190F82C302BB1002349
S31500001D4080F82C30002003B030BD022203695A709F
S31500001D50F8E700BF00E0014000E100E090F808C0AD
S31500001D60C0E90512BCF1010F80F82A3008D1002223
S31500001D70436880F826C05B0080F8243080F8252070
S31500001D80002380F82930FFF759BF00BF90F808C03C
S31500001D90C0E90512BCF1010F80F82A300AD10022F1
S31500001DA0436880F826C05B0043F0010380F82430C6
S31500001DB080F82520012380F82930FFF73FBF00BFB8
S31500001DC0F0B50024402203691C7003691A70066985
S31500001DD033785B06FCD5C027377006680769766AD4
S31500001DE06B4D36794FF0000C46F0E0063E740668FF
S31500001DF00769766A4FF0B30EF678664A46F0E00653
S31500001E007E7406680769766A634CB678634B36015A
S31500001E1006F0700646F00806BE700668766A3778E1
S31500001E20012F777814BF0426052646EA4706076978
S31500001E30F6B2FE7006687668AE4214BF7726F726BD
S31500001E4005696E71056985F806C0056985F807E0BC
S31500001E504E7B91F9115036015719F6B287F8006397
S31500001E6044F8250005F1C00653F826706CF31047B8
S31500001E7043F8267053F82660BFF35F8F01264FEABA
S31500001E80551E4FEA8E0E05F01F050EF1604E0EF53B
S31500001E90614E06FA05F5CEF88051CEF8005091F85D
S31500001EA00DE091F90F504FEA0E1E57195FFA8EFE9C
S31500001EB087F800E344F8250005F1C00E53F82E70AC
S31500001EC06CF3104743F82E7053F82E70BFF35F8FF4
S31500001ED04FEA551E4FEA8E0E05F01F050EF1604EB5
S31500001EE006FA05F50EF5614ECEF88051CEF8005093
S31500001EF091F80DE091F910504FEA0E1E57195FFA4E
S31500001F008EFE87F800E344F8250005F1C00E53F86D
S31500001F102E706CF3104743F82E7053F82E70BFF3F3
S31500001F205F8F4FEA551E4FEA8E0E05F01F050EF124
S31500001F30604E06FA05F50EF5614ECEF88051CEF8E4
S31500001F4000504D7B91F90E102D010A44EDB282F836
S31500001F50005344F8210001F1C00253F822406CF30B
S31500001F60104443F8224053F82230BFF35F8F4B09E9
S31500001F709B0001F01F0103F160438E4003F56143AE
S31500001F80C3F880611E609F2203691A70F0BD00BF0E
S31500001F9040420F0000E100E0F8070020006000402A
S31500001FA070B500250A78016002F5800202F51F620D
S31500001FB0120202618A68044642600A7B0272CA699A
S31500001FC042630A6A80F82950C26380F82A50856302
S31500001FD080F82B504561C0E90655056280F82C5003
S31500001FE0EFF3108C012282F310880B78C3F10903FA
S31500001FF09A40074B5E6826EA02025A605B688CF3D9
S315000020001088FFF7DDFE034B2846E36070BD00BF76
S31500002010004008404349495238B500250369DD713F
S315000020200168FFF7CDFEB322836990F8261003629C
S31500002030036980F82C50C56180F8281080F82A5072
S31500002040DA71284638BD00BF38B500250446036955
S31500002050DD710168FFF7B4FEB320012394F8262052
S3150000206084F82C5084F82820A269E561226222694E
S3150000207084F82A50D07122692849D5712268E56012
S3150000208092F91120500902F01F0203FA02F22030E1
S3150000209041F82020BFF34F8FBFF36F8F226892F96C
S315000020A00E20500902F01F0203FA02F2203041F816
S315000020B02020BFF34F8FBFF36F8F226892F9102055
S315000020C0500902F01F0203FA02F2203041F82020E4
S315000020D0BFF34F8FBFF36F8F226892F90F2050091D
S315000020E002F01F0203FA02F2203041F82020BFF36B
S315000020F04F8FBFF36F8FEFF3108083F31088216843
S31500002100074A0978C1F109018B4051680B435360B6
S31500002110536880F31088284638BD00BF00E100E010
S315000021200040084010B582B0EFF30383103B5F4ACE
S315000021305BB2C03352F8231021F4803142F82310E9
S3150000214052F82330EFF30383594A103B5BB252F83F
S31500002150234094F82D305BBBA369022B22D9E36997
S31500002160012B0ED12269137943F0100313712269F2
S31500002170137943F0080313712269137923F01003CE
S31500002180137123685B6ADB79002B3ED10122236938
S31500002190DB7CDBB28DF807309DF8073084F82D2004
S315000021A002B010BD2269137943F040031371D6E7DC
S315000021B0E369002BF4D02268526AD279FAB9032B6C
S315000021C017D0022B26D0012B34D02269236AD17C6A
S315000021D06269D154D4E907320132013BC4E90732BE
S315000021E0002BDDD121690A7963F386120A7102B0E8
S315000021F010BD2269137943F040031371E5E7052109
S315000022002046FFF7FDFCE369D9E705212046FFF7E5
S31500002210F7FCBBE72269137943F0100313712269B7
S31500002220137943F0080313712269137923F010031D
S315000022301371CAE794F82A2072B322681D4892F9EE
S315000022400F20510902F01F0203FA02F2203140F872
S315000022502120BFF34F8FBFF36F8F04202169CA7906
S3150000226042F08002CA7121690A7942F010020A71AD
S3150000227021690A7922F008020A7121690A7922F095
S3150000228010020A712269507021694A7922F001020E
S315000022904A7184F82C3098E708212269537A03F0B2
S315000022A0F7035372236959708FE700BF006000403F
S315000022B0F807002000E100E010B5EFF30383103BC0
S315000022C0424A5BB2C03352F8231021F4803142F8FF
S315000022D0231052F82330EFF303833D4A103B5BB2E1
S315000022E052F8234094F82730002B3FD194F8293038
S315000022F0002B3AD123685B6ADB792BB194F82B303B
S3150000230013B9236A002B5BD1E3692169002B40D105
S31500002310CB79C02223F08003CB71216901E0013A19
S3150000232002D0CB79DB09FAD12368284A93F9103019
S31500002330C03352F8231021F4803142F8231052F8AA
S315000023402330236893F91030002B09DB01215A0949
S31500002350204803F01F03603201FA03F340F82230ED
S315000023602269D37943F04003D37110BD94F8263027
S31500002370032B1CD094F8242023699A7494F82820FF
S3150000238094F827300132013B84F8282084F827305E
S3150000239010BD236A6269D35C8B74D4E907320132BB
S315000023A0013BC4E90732002BDFD12169B0E794F87D
S315000023B02830022BDED194F83030002BDAD110BD54
S315000023C005212046FFF71CFC9EE700BF0060004089
S315000023D0F807002000E100E038B5EFF30383334A45
S315000023E0103B5BB252F8234023685B6ADB79002B13
S315000023F048D194F829301BB194F82730012B4FD0DF
S31500002400E369DBB12169C023CA7922F04002CA71AF
S31500002410216901E0013B02D0CA795206FAD4EFF3F2
S315000024200383103B224A5BB2C03352F8231021F4D7
S31500002430803142F8231052F8233038BD94F82A2010
S315000024402AB3012022681B4D92F90F20510902F090
S315000024501F02203100FA02F245F82120BFF34F8F08
S31500002460BFF36F8F2169CA7942F08002CA710421D5
S315000024702269517021694A7963F300024A7184F82E
S315000024802C00BFE705212046FFF7BAFBB1E708217C
S315000024902269537A03F0F703537223695970B1E73F
S315000024A094F83030002BADD0AAE700BFF807002023
S315000024B00060004000E100E038B5EFF303834F4AC7
S315000024C0103B5BB252F823000269537A517ADC065C
S315000024D001F0E00151725FFA83FC03F003022BD591
S315000024E00369597849064DD40024012580F82B50FC
S315000024F0DC710168FFF764FCB32290F8263080F89F
S315000025002C4080F82830C46180F82A400369846929
S3150000251029460462DA71FFF773FBEFF30383103B7E
S31500002520374A5BB2C03352F8231021F4803142F8A7
S31500002530231052F8233038BD002A5CD11CF0080F56
S3150000254011D0C369002B45D190F82B30002B41D117
S31500002550B32290F829100369C1F10301C9B2DA71F7
S31500002560FFF74EFBD9E790F82C200CF0040342B39A
S31500002570002BD2D0C369002B3BD190F82B30002B17
S3150000258037D1E5E7002AAFD15A78C2F38011520657
S31500002590D4D5082280F82B105A70036801695A6A4C
S315000025A094791378527943EAC41343EA021343F049
S315000025B00203DBB2CB700269537943F00103537116
S315000025C0ABE7002BA9D003685B6ADB79002BA4D0AC
S315000025D00421C5E70023B321826990F826400262F0
S315000025E0026980F82C3080F82840C36180F82A30D0
S315000025F0D1710121B4E7036976E700BFF80700202F
S3150000260000600040064B074993F826001A6A51F805
S315000026102030C2F302620449D3400B60704700BF0A
S3150000262000E0014040050020240800204AF2035043
S3150000263001232F492F4A2DE9F043A1F8FE03A2F802
S315000026400431B2F804319BB2002BFAD101244FF4C5
S31500002650004529482949C0E903338560A2F80041AD
S31500002660274A8C600C600260264A01F5B83191F861
S31500002670265042600A6A81F8804481F83630224B3F
S31500002680436191F83C30DA07FBD542F2117400231E
S31500002690174A0C8581F82A3092F83C309B06FBD508
S315000026A005244FF003090123F1254FF0F00E4FF4F6
S315000026B0254CDFF84080154F88F81C91176282F888
S315000026C0264092F82640124950F82400146A114E0A
S315000026D0C4F30264E04030600D730B7281F80CE0C5
S315000026E082F8303082F85230A2F8FEC3BDE8F0839B
S315000026F000E0014000C0014040050020007000409D
S31500002700002D310100127A0000C2EB0B21120120CC
S31500002710002000402408002010B50024064B0120AC
S3150000272083F8284000F0F0F8044B012083F8BB44FE
S31500002730BDE8104000F0B8B80030084000E00140A5
S31500002740A0F101000028FBD1704700BF1F4B204AB3
S315000027501B6800FB01F1934213D302F1854202F597
S31500002760071203F5741302F6834203F6FF03A2FB76
S3150000277003231B0DA3FB01314FF0FF30F9B1FFF727
S31500002780DFBF4FF47A7210B4A1FB02C41148B0FB4C
S31500002790F3F34FF0FF3044B9BCFBF3FC4FEA9C0067
S315000027A088B15DF8044BFFF7CBBF9B00B1FBF3F19B
S315000027B0A1FB0212002AF4D1084620B1F1E718461F
S315000027C0002BDCD170475DF8044B704724080020CD
S315000027D000127A0000CA9A3B70B500240B4B0C4ECF
S315000027E0B3F82021B3F84051ADB2154025FA04F3F1
S315000027F0DB0704D556F82430E0B203B1984701341C
S31500002800102CF3D1014BA3F8305170BD006000408D
S31500002810B407002030B5032085B000F075F8002518
S315000028206FF0FF004FF0FF321B4B1C4C98642146A3
S315000028302B464FF0010ECDE90122039231F8020F2B
S315000028400EFA03FC013310B1012522EA0C02082B13
S31500002850F4D1F5B10192124B0F4903200A67C3F870
S315000028608022029A4A67C3F88422039A8A67C3F8C9
S31500002870882200F019F800230A4834F8022F03F1E1
S31500002880C00101330AB140F82120082BF5D105B06B
S3150000289030BD4FF0FF32DEE700800040BE6F000023
S315000028A000E100E000600040EFF31081012383F3B4
S315000028B01088124B33F8102092B22AB133F8102048
S315000028C0013A92B223F8102033F810309BB293B934
S315000028D010B40B4A0B4CB2F8FE3334F810009BB21E
S315000028E043F4254323EA0003A2F8FE3381F310885C
S315000028F05DF8044B704781F3108870471808002074
S3150000290000E001402871000030B4EFF3108101238C
S3150000291083F310880E4A32F810309BB26BB90D4C17
S315000029200D4DB4F8FE3335F810C09BB243EA0C03E4
S3150000293043F425439BB2A4F8FE3332F8103001333A
S315000029409BB222F8103081F3108830BC704700BF6C
S315000029501808002000E001402871000008B501F0C9
S31500002960FDFB0C2203461A604FF0FF3008BD00BF86
S3150000297000BE704708B500F035F8FEF74DFBFEE7E0
S31500002980F8B5174F05463E68A6B17C6806EB4606C5
S3150000299004EB860602E00C34B4420BD0637AAB42F9
S315000029A0F9D1D4E900020021121A0C3401F0CEFB51
S315000029B0B442F3D1BE6896B1FC6804EB061602E099
S315000029C01034A6420BD0637BAB42F9D1D4E90002A6
S315000029D0A168121A103401F0C9FBA642F3D1F8BD62
S315000029E0507000004FF47001274B284A70B5002044
S315000029F0C3F888109A60FEF703FBFFF717FE012065
S31500002A00FEF7FEFA224B83F30A880020FFF7B8FF91
S31500002A10FFF7F8FDFFF780FE0320FFF775FF0023A1
S31500002A204FF6FF701B4903F1080201330C2B21F806
S31500002A301200F8D100240320FFF736FF0320FFF72A
S31500002A4063FF154B03205C609C60DC601C61FFF734
S31500002A502BFF0220FEF7D4FA0120FFF791FF0F4D5E
S31500002A600F4B5B1BA3424FEAA30605DD55F8043B5B
S31500002A7001349847A642F9DCFFF7CCFEBDE870406A
S31500002A80002000F00FB800BF00ED00E000000000DD
S31500002A9040010020000D084000000E407075000047
S31500002AA074750000704700BFF7EE007AB4EEE70ACF
S31500002AB0F1EE10FA10B52DED028B2BD430EE670A2D
S31500002AC0DFED248AF7EE047A022467EE807AB7EE09
S31500002AD0008A77EE887A17EE900A01F0D3F941EC76
S31500002AE0100B01F0F1FF51EC100B01F0ABFA00EE08
S31500002AF0100A194B20EE280A03EB8403D3ED007A63
S31500002B0030EE270AB4EEC80AF1EE10FA0EDDBDEC7F
S31500002B10028B10BDDFED117AB4EEE70AF1EE10FA82
S31500002B2009D5B5EEC00AF1EE10FA0CD5BDEC028B54
S31500002B30B7EE000A10BD30EE670ADFED098ADFED59
S31500002B40097A0124C1E7DFED087ADFED088A00245F
S31500002B50BBE700BFC343EB3F347100009A99993E2F
S31500002B60305F0C40C1CB2940BEBEE34177AB02408B
S31500002B701B8882B05BBA9BB29342019005D98B4207
S31500002B8007D39FED1A0A02B070479FED190A02B0EB
S31500002B90704707EE900A9A1AF8EEE76ADFED155AC3
S31500002BA007EE902AC91AF8EEE77A07EE101A66EED3
S31500002BB0A56AB8EEC77A66EEA77A9FED0C6A87EE2D
S31500002BC0870AB4EEC60AF1EE10FA03DDB0EE460A45
S31500002BD002B07047DFED067AB4EE670AF1EE10FA3E
S31500002BE048BFB0EE670A02B0704700BFA5D468536D
S31500002BF00000C84200007A44DFED827AF4EEE72A4C
S31500002C002DE9F04FF1EE10FA2DED068B05460C4638
S31500002C1010EE100AB0EE609AF0EE429A914698468F
S31500002C2091B040F3CB80DFED787AF4EEE72AF1EE4F
S31500002C3010FAB0EE628A40F1C180B5EEC08AF1EEBC
S31500002C4010FA88ED108A40F3D180DFED707AB4EE89
S31500002C50678AF1EE10FAF5EEC09A37FE888AF1EE31
S31500002C6010FA40F3CB80DFED697AF4EE679AF1EE65
S31500002C7010FA77FEA99A01F005F941EC100B01F064
S31500002C8023FF51EC100B01F0DDF9D5F860B00AEE28
S31500002C90100ABBF1030F00F2FB8005F130073E4638
S31500002CA004F1240954F8040B01F0ECF841EC100B84
S31500002CB001F00AFF51EC100B01F0C4F94C4546F83F
S31500002CC0040BEFD1002385ED15AAC5ED169A85ED07
S31500002CD0178AC5F880302B463A4605F15007166824
S31500002CE054689068D1681032BA421E605C60986081
S31500002CF0D96003F11003F2D112689FED457A1A608C
S31500002D00D5ED107A85ED09AAC5ED0A9A85ED0B8AEF
S31500002D10C7EE278ADFED3F7AF4EEE78AF1EE10FA86
S31500002D2000F30D829FED3C8AB0EE480AFFF7BCFE29
S31500002D302C6EDFED388A012C00F00D82D5ED1E6A6F
S31500002D4095ED1F7A9FED356A78EEE68A30EE470AF2
S31500002D5068EE868A20EE060A78EEA68ADFED427ACB
S31500002D6030EE070AC5ED1E8A85ED1F0A68EEA77AC2
S31500002D70C8ED138AC8ED127A88ED110A95F89830D5
S31500002D80002B00F07181002385ED198A85ED1A8AE2
S31500002D90DFED3E7A85F898303C2C8CBF0020012070
S31500002DA02B69C5ED1D7AC8ED147A88ED0F9AC8F81F
S31500002DB0383011B0BDEC068BBDE8F08F89EE016AA4
S31500002DC0DFED176A9FED177A86EE268A38EE478A78
S31500002DD0DFED157A38EE218A38EE678AB5EEC08ABD
S31500002DE0F1EE10FA88ED108A3FF72FAFF5EEC09A94
S31500002DF0F1EE10FA9FED1D8A3FF735AFDFED1B9A16
S31500002E0039E700BF00008CC3002474490000C842A3
S31500002E10CDCCCC3D27A0093C395E813C9AE4C23D2D
S31500002E20A306533B8D479B43EC51B840F99E0142A4
S31500002E30718833429F33E53F4A014340CCBC8CAB9B
S31500002E403EE7963F38DC913F8716AF42E5908F42CA
S31500002E50B6A0453CA14C343CCDB1A93493F9283AEF
S31500002E60FF440E4700409C45D7A3F03F00000000FA
S31500002E70A69B443A0EA21138E0A54741060DFABCBE
S31500002E80B9B7513CFF02D72C6F12833A0000C843F2
S31500002E9005F13007F6EE00AA3E4604F1240A54F87E
S31500002EA0040B00F0EFFF41EC100B01F00DFE51ECAE
S31500002EB0100B01F0C7F8D6ED008A07EE900A77EE00
S31500002EC0E87A67EEAA7A77EEA87A5445E6EC017AB4
S31500002ED0E5D1D5ED156A95ED167AD5ED177A3AEE68
S31500002EE066AA79EEC79A38EE678A2AEE2AAA69EEAA
S31500002EF0AA9A28EE2A8A00233AEE26AA79EE879A1B
S31500002F0038EE278ABBF13C0FD5ED105A85ED15AA90
S31500002F10C5ED169A85ED178AC5F880307FF6DBAECB
S31500002F20BBF5167FD5ED046A00F22681F4EEE56A5C
S31500002F30F1EE10FA00F2C38105F124043A462B465D
S31500002F4007F1200C176856689068D1681032624500
S31500002F501F605E609860D96003F11003F2D11268B9
S31500002F601A6085ED09AAC5ED0A9A85ED0B8A002639
S31500002F70D5ED146AB7EE007AC6EEA57AF4EEC77AF6
S31500002F80F1EE10FA40F328811FED587A1FED580A2A
S31500002F9067EE877A30EE670A00F060FDB7EE007ADA
S31500002FA0C7EE007A30EE676A30EE270A5FED5F6A99
S31500002FB0C6EE007A1FED608A67EEA67A38EE678A5B
S31500002FC0B4EEC78AF1EE10FA40F3D380F1EE047A3C
S31500002FD0B4EE678AF1EE10FA37FE888A5FED696A09
S31500002FE02946012306AAF1EC017A91ED0B7A77EED8
S31500002FF0C77AF4EE667AF1EE10FA98BF00238C4297
S31500003000E2EC017AEFD1DDED0A7A002B40F0648123
S315000030101FED767AF4EEC77AF1EE10FACDED017A6D
S315000030207FF580AE002E3FF47DAE1FED7B7A1FED5F
S315000030307B0A67EEC77A37EEC00A00F00FFDB7EEDF
S31500003040006AC6EE007A30EE676A30EE270A5FED58
S31500003050826AC6EE007A1FED837A67EEA67A77EE6D
S31500003060877AC5ED207A5DE6D5ED1A7AD5ED195A3F
S3150000307078EE676A1FED8A4A5FED8A4A38EE656A1E
S3150000308066EEA46A26EE046A76EEA76A36EE256A2E
S315000030901FED857A76EE667A95ED1B5A37EEC77A7E
S315000030A037EE057AB5EEC07AF1EE10FA85ED196ABB
S315000030B0C5ED1A6A5ADD5FED985AB4EE657AF1EEFF
S315000030C010FA35FE877A5FED9B5AD5ED1C4A77EEEE
S315000030D0A55A75EEA45AF5EEC05AF1EE10FA85ED32
S315000030E01B7A95ED1D5A4FF0000378DD5FED9C5A73
S315000030F0F4EEE57AF1EE10FA2B6740F3A2801FEDAD
S31500003100A57A5FEDA97A5FED9F5A68EE277A5FEDA3
S31500003110AB6A77EEA57A37EE057AF4EE667AF1EECB
S3150000312010FAB4EEE57A76FEA77AF1EE10FA50DDE3
S31500003130B4EEE77AF1EE10FA77FE877A2CE61FED09
S31500003140B68A28EE888AB0EE480AFFF7ADFC2C6EE8
S31500003150012C7FF4F3ADC5ED1E8AB0EE480AFFF7E9
S31500003160A3FCF0EE487A85ED1F0A01E61FEDC17A51
S31500003170A9E7B0EE478A31E795ED095A1FEDC47A03
S315000031807AEE454AF4EEC74AF1EE10FA6DDAF4EE3D
S31500003190E56AF1EE10FA7FF6CFAE5FEDCA6A05F189
S315000031A024042B46CDED066A93ED007AD3ED0C7A16
S315000031B077EEC77A67EEA67A77EE877AE3EC017A3E
S315000031C0A342F1D166EEA46A76EE856AC5ED096A78
S315000031D0CDE6F0EE657ADFE51FEDD90ADCE65FEDB8
S315000031E0D94AF4EEE45AF1EE10FA00F34A815FEDA3
S315000031F0DC5AF4EEE57AF1EE10FAC5ED1C4A3FF71B
S315000032007EAF5FEDE05AB4EEE57AF1EE10FA3FF7E5
S3150000321076AF1FEDE37AF4EEC76AF1EE10FA1FDD22
S3150000322086EE267A5FEDE77AB7EE006A75EE677A84
S3150000323037EE467ADFEDAA6A27EE277A27EE267A58
S315000032405FE7DFEDA85AB4EEE57AF1EE10FA3FF744
S3150000325056AF9FEDA57AF4EEC77AF1EE10FAD8DDF7
S315000032609FEDA27A27EE877A4BE775EEE67AF4EEC3
S31500003270C77AF1EE10FA8ADB2A46002105F124040A
S315000032801346D2ED0C7A93ED006A77EEC67AF4EE29
S31500003290C77AF1EE10FA01F1010002F10402A8BFAB
S315000032A0C1B29442ECD1F4EEE56AF1EE10FA00F206
S315000032B00B81062988BF01263FF65AAE3EE695EDFC
S315000032C0095ABBF13D0F7AEE454A7FF466AFDFED52
S315000032D0886A05F1240464E76B6B06A804A9CDEDA2
S315000032E0017A0F9300F08EFB95ED0A7AD5ED167AEA
S315000032F0DFED806A37EE676AB4EEE66AF1EE10FA41
S315000033006DD4DFED7D8AD5ED0B9AD5ED177A79EE82
S31500003310E77A17EE900ACDED028A00F0B3FD6CA3B2
S31500003320D3E9002300F066FE00286CD10023F0EEFE
S31500003330687A9DED017A05AC039377EE677AF5EE30
S31500003340C07AF1EE10FAD8BFDFED6B7A214601A8FC
S31500003350CDED017A00F038FB9DED047ADFED677A5A
S31500003360B4EEE77AF1EE10FADFED646AD8BFB0EE9C
S31500003370677ADDED057AC8BFB6EE006AF4EEE67A46
S31500003380CCBF27EE066A9FED5E6AF1EE10FA77FE75
S31500003390A67A67EE887A8DED047A07EE109A19F010
S315000033A0800FB8EEC77A37EE868ACDED057A1CBF58
S315000033B0DFED547A37EE677A17EE100A00F062FDF9
S315000033C09FED450B41EC110B01F0C2FB51EC100BCC
S315000033D000F038FE08EE900A68EE888A9AE402A9A0
S315000033E006A88DED067ACDED077A00F0B1FAB7EEB4
S315000033F0047ADDED027A67EE878AF5EEC08AF1EE91
S3150000340010FA80DC7DE705AC214606A8CDED069ACC
S31500003410CDED079A00F0BAFAB7EE047ADDED057A3B
S3150000342067EE877AF5EEC07AF1EE10FAD8BFDFEDD7
S31500003430327AEB6A06A80693EB6D03A9CDED057A01
S31500003440079300F0A3FAB7EE047ADDED037A67EE90
S31500003450877AF5EEC07AF1EE10FA9DED057AD8BFBF
S31500003460DFED257ADDED026A77EEC77AF4EEE67ACD
S31500003470F1EE10FACDED037A9DED017A77FEA67A8C
S315000034805BE7DFED214AF4EEE47AF1EE10FAC5EDE2
S315000034901C5A3FF734AEDFED134AB4EEE47AF1EE90
S315000034A010FA3FF72CAE9FED107AF4EEC77AF1EEE4
S315000034B010FA7FF7AEAE9FED157AF4EEC75AF1EE2D
S315000034C010FA3FF7CDAEA4E6DFED116A69E600BF5C
S315000034D011EA2D81999771BD000000E07EAEF03FA4
S315000034E07FE57B3DFF02D72C93F928BA2C923A420E
S315000034F000C01138CCBC8CAB00000000BD3786354F
S31500003500BD37063500008043B9B7513CC4359DB878
S315000035100EA211380000000038B5036E2DED068BA3
S31500003520012B0446F0EE608A0D4640F2DD803C2B0E
S3150000353040F2DD80B3F5966F40F2E880B3F5E14FD7
S3150000354040F2EA80B3F5614F40F2ED80DFED7C7A20
S31500003550D4ED216A30EE667A67EE277A77EEA67AA0
S31500003560C4ED217AC7EE807A17EE900A00F08AFC45
S3150000357041EC100B01F0A8FA51EC100B00F062FDC3
S315000035809FED706A05EE900A94ED238AC5EE867A61
S31500003590DFED6D6A77EEC87A67EEA67AB0EE007A4E
S315000035A077EE887AC4ED237A77EE877A17EE900A5B
S315000035B000F068FC9FED600B41EC110B01F0C8FABE
S315000035C051EC100B00F03EFD07EE100ADFED5F7ABE
S315000035D0B1EE470A80EE270A00F040FAF7EE007ACD
S315000035E094ED238AD4ED246A37EEC07A68EE087A21
S315000035F09FED576A77EEE67ADFED565A67EE867AE2
S3150000360027EE257A77EEA67A84ED227AC4ED247A1F
S3150000361017EE900A00F036FC41EC190BB0EE490AA1
S31500003620F0EE690AD4ED25AA01F00AFBF3EE047A5E
S3150000363051EC100B8AEEA7AA00F004FD07EE900AE3
S31500003640F4EECA7AF1EE10FA41DC8AEE8A0A28EE26
S31500003650400A00F003FAB7EE008A30EE080AC8EE18
S31500003660007A77EEA77A77EE887A17EE900A00F05E
S3150000367009FC9FED310B41EC110B01F069FA51EC9D
S31500003680100B00F0DFFC07EE100ADFED307AB1EE2A
S31500003690470A80EE270A00F0E1F99FED2E7A38EE10
S315000036A0408ADFED2D7A28EE078AB4EE678AF1EEBE
S315000036B010FA206E37FE888A3C28C5ED0F8A85ED04
S315000036C0158ABDEC068B8CBF0020012038BDB0EEFC
S315000036D0490AF0EE690A01F0B3FA51EC100B00F05A
S315000036E0B1FC0AEE100AB0E7F7EE007A30E7DFED3C
S315000036F01B6A0122B7EE007A9B1A07EE903AF8EEA3
S31500003700677A67EEA67A77EE877A21E7DFED146AA5
S315000037103C229FED147AEFE7DFED136A4FF49662D1
S315000037209FED127AE8E7DFED126A4FF4E1429FED72
S31500003730117AE1E7AFF300800000000000002440AA
S315000037400EA211383333333F9AE4C23DD1476D445C
S3150000375068A1913800007A440000FA4357BB8ABC3E
S31500003760271AC4B4C25C5A3A74DB2CB26768DA39D9
S315000037709F8778B11DA0113970B501230025242635
S315000037800446DFF868C03246C0F874C080F8983046
S31500003790002145668566C566056700F0D7FC32469A
S315000037A0002104F1300000F0D1FC4FF07E530020E0
S315000037B00B4A0C49E367C4F888300B4BC4F89010E9
S315000037C065626565A562A565E562E5652066A26731
S315000037D0C4F88450C4F88C50C4F8943070BD00BF4F
S315000037E027A0093C8FC2F53C9B201A3F0000C84326
S315000037F02DE9F04F2DED028B85B0DDF840800D46AA
S31500003800C1469A461B680E894F8908F1180B01902C
S31500003810039202939C1C234668783A463146FFF78A
S31500003820A7F9A9EC010ACB4504F10204F3D1029BE6
S315000038305C4608F1340903F1120B5B4668783A4698
S315000038403146FFF795F9A4EC010AA1450BF1020BED
S31500003850F3D1039840B1DAF804302BB142890189DB
S315000038604078FFF785F901E09FED320A88ED0D0AF1
S31500003870029B9FED317A1B88DFED307A5BBA9BB2F3
S3150000388008EE103AB8EEC88A28EE078A019838EE94
S31500003890278A026E9FED2A1A531C1CBF013202664C
S315000038A0B5F80330AA795BBA9BB207EE903A01EEFF
S315000038B0902AF8EEE77A019E2B69F0EE480A9A798B
S315000038C008F10801DAED032A9AED022A3046FBEEEA
S315000038D0EF1A434687EE811AFFF78EF904464146F2
S315000038E0F0EE480A98ED060A3046FFF715FEC4B911
S315000038F0D8ED047A9FED137AF4EEC77AF1EE10FA5A
S3150000390015D49FED117AF4EEC77AF1EE10FA0EDCBB
S31500003910DFED0E7AB4EE678AF1EE10FAC8BF6FF0EB
S315000039206504204605B0BDEC028BBDE8F08F6FF054
S315000039306504F6E7002474494617BF3AA38B7E4117
S315000039400AD7234400007A43F90215508638764296
S3150000395030B50C460B4A87B00323009203A9022216
S3150000396000F004F9084D03A90846032200F0A2F866
S3150000397001230322214603A8009500F0F7F807B0BB
S3150000398030BD00BF507100004071000030B50C46DC
S315000039900B4A87B00323009203A9022200F0E6F83F
S315000039A0084D03A90846032200F0CAF801230322A2
S315000039B0214603A8009500F0D9F807B030BD00BF36
S315000039C0847100007471000030B50C460B4A89B052
S315000039D00623009202A9012200F0C8F8084D02A9A8
S315000039E00846062200F066F801230622214602A8B0
S315000039F0009500F0BBF809B030BD00BFC4710000EF
S31500003A00A87100000A2330B50C46114A93B0009203
S31500003A1008A91A4600F0AAF808A908460A2200F0E2
S31500003A2049F80C490523009108A803A90A2200F0C9
S31500003A309DF8094D03A90846052200F03BF801232D
S31500003A400522214603A8009500F090F813B030BD7A
S31500003A50E87200000C720000F4710000DFED117ACC
S31500003A60B4EEE70AF1EE10FA19DCDFED0F7AB4EEE8
S31500003A70E70AF1EE10FA02D59FED0C0A704708B579
S31500003A8010EE100A00F0FEF941EC100B00F0CCFF2E
S31500003A9051EC100B00F0D6FA00EE100A08BD9FEDAF
S31500003AA0040A70470000A4420000A4C222CB4F04BF
S31500003AB0EDB19D7AFAB370B504462DED048B0D4633
S31500003AC09FED1D8AB7EE009ADFED1C8A00EB820699
S31500003AD00AE0F4EEE87AF1EE10FA15D5FFEE007A78
S31500003AE0A642E5EC017A0CD0F4EC017AF4EEC87A41
S31500003AF0F1EE10FAEDDDF7EE007AA642E5EC017A7A
S31500003B00F2D1BDEC048B70BD17EE900A00F0BAF945
S31500003B1041EC100B00F088FF51EC100B00F092FA0C
S31500003B2007EE900A89EE277A77EEC76A37EE877A2C
S31500003B30C6EE877AD4E770470000A4420000A4C20C
S31500003B4082B19FED097A00EB8202F0EC017AF5EE84
S31500003B50C07AF1EE10FAD8BFF0EE477A8242E1EC75
S31500003B60017AF2D1704700BF0000000070B5049CD6
S31500003B701BB3054616464FF0040E501E1EFB0312DD
S31500003B801EFB065EC0B200F1010C4FEA8C00B4ECDD
S31500003B90017AA1EC017A76B1A4462B46F3EC016AD0
S31500003BA0FCEC017A67EEA67A37EE277A734501EDCB
S31500003BB0017AF3D104449142E9D170BD81F000410C
S31500003BC002E000BF83F0004330B54FEA41044FEAFC
S31500003BD0430594EA050F08BF90EA020F1FBF54EA97
S31500003BE0000C55EA020C7FEA645C7FEA655C00F033
S31500003BF0E2804FEA5454D4EB5555B8BF6D420CDD04
S31500003C002C4480EA020281EA030382EA000083EA86
S31500003C10010180EA020281EA0303362D88BF30BD26
S31500003C2011F0004F4FEA01314FF4801C4CEA11317C
S31500003C3002D0404261EB410113F0004F4FEA0333DB
S31500003C404CEA133302D0524263EB430394EA050F66
S31500003C5000F0A780A4F10104D5F1200E0DDB02FAD5
S31500003C600EFC22FA05F2801841F1000103FA0EF269
S31500003C70801843FA05F359410EE0A5F120050EF12F
S31500003C80200E012A03FA0EFC28BF4CF0020C43FA60
S31500003C9005F3C01851EBE37101F0004507D54FF06D
S31500003CA0000EDCF1000C7EEB00006EEB0101B1F5BD
S31500003CB0801F1BD3B1F5001F0CD349085FEA300003
S31500003CC04FEA3C0C04F101044FEA445212F5800F0E
S31500003CD080F09A80BCF1004F08BF5FEA500C50F1AB
S31500003CE0000041EB045141EA050130BD5FEA4C0C8E
S31500003CF0404141EB0101013C28BFB1F5801FE9D2EB
S31500003D0091F0000F04BF01460020B1FA81F308BF0D
S31500003D102033A3F10B03B3F120020CDA0C3208DDD9
S31500003D2002F1140CC2F10C0201FA0CF021FA02F1B4
S31500003D300CE002F11402D8BFC2F1200C01FA02F124
S31500003D4020FA0CFCDCBF41EA0C019040E41AA2BF49
S31500003D5001EB0451294330BD6FEA04041F3C1CDA11
S31500003D600C340EDC04F11404C4F1200220FA04F031
S31500003D7001FA02F340EA030021FA04F345EA0301DB
S31500003D8030BDC4F10C04C4F1200220FA02F001FA9D
S31500003D9004F340EA0300294630BD21FA04F029461F
S31500003DA030BD94F0000F83F4801306BF81F48011B8
S31500003DB00134013D4EE77FEA645C18BF7FEA655C2B
S31500003DC029D094EA050F08BF90EA020F05D054EAFD
S31500003DD0000C04BF1946104630BD91EA030F1EBF02
S31500003DE00021002030BD5FEA545C05D14000494106
S31500003DF028BF41F0004130BD14F580043CBF01F5F9
S31500003E00801130BD01F0004545F0FE4141F47001DE
S31500003E104FF0000030BD7FEA645C1ABF19461046B9
S31500003E207FEA655C1CBF0B46024650EA013406BFBA
S31500003E3052EA033591EA030F41F4002130BD00BF79
S31500003E4090F0000F04BF0021704730B54FF4806436
S31500003E5004F132044FF000054FF0000150E700BFB7
S31500003E6090F0000F04BF0021704730B54FF4806416
S31500003E7004F1320410F0004548BF40424FF0000103
S31500003E803EE700BF42004FEAE2014FEA31014FEA46
S31500003E9002701FBF12F07F4393F07F4F81F0605195
S31500003EA0704732F07F4208BF704793F07F4F04BFE0
S31500003EB041F40021704730B54FF4607401F00045BD
S31500003EC021F000411CE700BF50EA010208BF70471D
S31500003ED030B54FF000050AE050EA010208BF70470E
S31500003EE030B511F0004502D5404261EB41014FF477
S31500003EF0806404F132045FEA915C3FF4D8AE4FF07F
S31500003F0003025FEADC0C18BF03325FEADC0C18BF61
S31500003F10033202EBDC02C2F1200300FA03FC20FAB2
S31500003F2002F001FA03FE40EA0E0021FA02F11444FF
S31500003F30BDE600BF4FF0FF3C06E000BF4FF0010CAE
S31500003F4002E000BF4FF0010C4DF804CD4FEA410CE2
S31500003F507FEA6C5C4FEA430C18BF7FEA6C5C1BD0AF
S31500003F6001B050EA410C0CBF52EA430C91EA030F30
S31500003F7002BF90EA020F0020704710F1000F91EA8D
S31500003F80030F58BF994208BF90422CBFD8176FEA5B
S31500003F90E37040F0010070474FEA410C7FEA6C5C29
S31500003FA002D150EA013C07D14FEA430C7FEA6C5C30
S31500003FB0D6D152EA033CD3D05DF8040B704700BF5C
S31500003FC08446104662468C461946634600E000BFAA
S31500003FD001B5FFF7B7FF002848BF10F1000F01BD7C
S31500003FE04DF808EDFFF7F4FF0CBF012000205DF847
S31500003FF008FB00BF4DF808EDFFF7EAFF34BF0120CC
S3150000400000205DF808FB00BF4DF808EDFFF7E0FF64
S3150000401094BF012000205DF808FB00BF4DF808EDB5
S31500004020FFF7CEFF94BF012000205DF808FB00BF1C
S315000040304DF808EDFFF7C4FF34BF012000205DF8FE
S3150000404008FB00BF4FEA4102B2F1E04324BFB3F5DB
S31500004050001CDCF1FE5C0DD901F0004C4FEAC002F9
S315000040604CEA5070B2F1004F40EB830008BF20F0DD
S315000040700100704711F0804F21D113F13872BCBF97
S3150000408001F00040704741F480114FEA5252C2F1EC
S315000040901802C2F1200C10FA0CF320FA02F018BF35
S315000040A040F001004FEAC1234FEAD32303FA0CFC88
S315000040B040EA0C0023FA02F34FEA4303CCE77FEA17
S315000040C0625307D150EA01331EBF4FF0FE4040F461
S315000040D04000704701F0004040F0FE4040F4000010
S315000040E0704700BF0CB4184B30B50C1E9DB01D6850
S315000040F008DA8B234FF0FF302B601DB0BDE830404F
S3150000410002B070474FF402730290069002A9ADF810
S31500004110143014BF04F1FF332346209A2846049333
S3150000412007934FF6FF73ADF8163021AB019300F0FD
S315000041307FF9431CBCBF8B232B60002CDDD0029B78
S3150000414000221A70D9E700BFEC00002002440346A3
S31500004150934200D1704703F8011BF9E7014B186839
S31500004160704700BFEC000020704770470A44431EAA
S31500004170914200D1704710B511F8014B914203F8F6
S31500004180014FF9D110BD000038B50546002941D0D0
S3150000419051F8043C0C1F002BB8BFE41800F0E0F8FF
S315000041A01D4A136833B9636014602846BDE8384079
S315000041B000F0DCB8A34208D9206821188B4201BF61
S315000041C019685B6809182160EDE71A465B680BB150
S315000041D0A342FAD911685018A0420BD120680144B5
S315000041E0501811608342E0D118685B680844536038
S315000041F01060DAE702D90C232B60D6E72068211875
S315000042008B4202BF19685B680918636008BF2160AA
S315000042105460CAE738BD00BF6C09002070B50F4E68
S315000042200C460546316811B900F0A8FB30602146FE
S31500004230284600F0A3FB431C03D14FF0FF34204671
S3150000424070BDC41C24F00304A042F8D0211A2846ED
S3150000425000F094FB0130F2D1EFE700BF68090020BF
S315000042602DE9F843CD1C064625F0030508350C2D2F
S3150000427038BF0C25002D01DBA94204D90C2333607D
S315000042800020BDE8F883DFF8D48000F069F8D8F89C
S3150000429000301C4644BB29463046FFF7BFFF431C8F
S315000042A0044658D1D8F800402746002F43D1002CA9
S315000042B04BD023683946304604EB030900F05EFB19
S315000042C0814542D1216830466D1A2946FFF7A6FF7F
S315000042D001303AD023682B442360D8F800305A685E
S315000042E062BBC8F800700FE02268521B20D40B2A6C
S315000042F017D96119A342256018BF5960636808BFC2
S31500004300C8F8001062514B60304600F02FF804F1F7
S315000043100B00231D20F00700C21A1CBF1B1AA35056
S31500004320AFE76268A3420CBFC8F800205A60EBE70B
S3150000433023466468AEE73C467F68B6E71A465B6884
S31500004340A342FBD100235360DEE70C2330463360E3
S3150000435000F00CF894E70560D6E700BF6C09002072
S315000043600148FFF701BF00BF640900200148FFF7BD
S31500004370FCBE00BF640900202DE9F0471F468E6889
S3150000438082460C46BE4290460B682DD8B1F90C20E9
S3150000439012F4906F26D06569096905EB4505A3EB14
S315000043A001097B1C05EBD5754B446D109D4238BF4A
S315000043B01D46530527D52946FFF752FF064660B32B
S315000043C04A462169FFF7D2FEA38923F4906343F09E
S315000043D08003A38126614E446561A5EB090526602D
S315000043E03E46A560BE4200D93E463246414620685A
S315000043F000F0AAFAA36800209B1BA360236833443D
S315000044002360BDE8F0872A4600F0D6FA0646002863
S31500004410E0D121695046FFF7B7FE0C234FF0FF307D
S31500004420CAF80030A38943F04003A381E9E70000FE
S315000044302DE9F04F98468B899DB007461B060D4621
S31500004440144610D50B6973B94021FFF709FF2860A0
S31500004450286130B90C233B604FF0FF301DB0BDE83A
S31500004460F08F40236B610023CDF80C804FF00109DB
S31500004470DFF8A081099320238DF8293030238DF8A9
S315000044802A3023469A4613F8012B0AB1252AF9D178
S31500004490BAEB040B0BD05B46224629463846FFF79B
S315000044A06BFF013000F0A780099A5A4409929AF8E6
S315000044B00030002B00F09F8000234FF0FF320AF1FE
S315000044C0010A049307938DF853301A93CDE9052317
S315000044D0544605224F4814F8011B00F05FFA049A6F
S315000044E0D8B9D00644BF20238DF85330110744BFF6
S315000044F02B238DF853309AF800302A2B15D0079AC3
S31500004500544600204FF00A0C214611F8013B303B7F
S31500004510092B4BD9B0B1079214E0A0EB0803A246D1
S3150000452009FA03F313430493D2E7039B191D1B688F
S31500004530002B0391BBBF5B4242F002020793079335
S31500004540B8BF049223782E2B0AD163782A2B32D156
S31500004550039B02341A1D1B6843EAE3730392059317
S31500004560DFF8C0A003222178504600F017FA38B1D0
S31500004570A0EB0A004022049B0134824013430493BB
S3150000458014F8011B062224488DF8281000F006FABC
S31500004590002836D0214B1BBB039B073323F00703B0
S315000045A008330393099B334409936AE70CFB0232F1
S315000045B00C460120A8E7002301344FF00A0C1946E7
S315000045C00593204610F8012B303A092A03D9002B0F
S315000045D0C6D00591C4E70CFB012104460123F0E790
S315000045E003AB2A4604A9384600930D4BAFF300806F
S315000045F0421C0646D6D1AB895B063FF52DAF09981E
S315000046002CE703AB2A4604A938460093044B00F076
S315000046107DF8EDE7A0740000AA7400000000000019
S3150000462079430000A67400002DE9F0471646984627
S315000046308A6807460B690C46DDF820909342B8BF9E
S315000046401346336091F843200AB10133336023687F
S31500004650990642BF336802333360256815F00605B4
S3150000466006D104F1190AE36832689B1AAB422BDCC7
S3150000467094F843302268003B18BF0123920630D4D9
S3150000468004F1430241463846C847013023D0236827
S315000046901A3454F80A2C03F00603042B0ABF54F804
S315000046A00E5C002533684FF0000608BFED1A54F87B
S315000046B0123C08BF25EAE5759342C4BF9B1AED1864
S315000046C0B5421AD1002008E0012352464146384639
S315000046D0C847013003D14FF0FF30BDE8F087013500
S315000046E0C1E7E1185A1C30200233224481F8430006
S315000046F094F8451082F84310C2E70123224641464A
S315000047003846C8470130E6D00136D9E72DE9FF47DC
S315000047100F7E914680460C46782F9A460C9E01F1F4
S31500004720430207D8622F0AD8002F00F0D180582FF5
S3150000473000F0B88004F1420684F842703AE0A7F12E
S315000047406303152BF6D801A151F823F0A547000005
S31500004750B9470000354700003547000035470000DF
S3150000476035470000B94700003547000035470000CF
S315000047703547000035470000B7480000E347000012
S31500004780714800003547000035470000D948000051
S3150000479035470000E3470000354700003547000075
S315000047A07948000033681A1D1B68326004F142061E
S315000047B084F8423001239CE033682068191D31607B
S315000047C0060601D51D6803E04506FBD5B3F9005082
S315000047D0002D03DA2D236D4284F8433058480A230E
S315000047E011E021683368080653F8045B02D44906D1
S315000047F048BFADB26F2F3360514814BF0A23082358
S31500004800002184F843106668002EA66005DB216847
S315000048102E4321F0040121604BD01646B5FBF3F17F
S3150000482003FB1157C75D06F8017D2F460D46BB42B7
S31500004830F4D9082B0BD12368DF0708D523696168F3
S315000048409942DEBF302306F8013C06F1FF36921B83
S3150000485022614B4603AA21464046CDF800A0FFF749
S31500004860E3FE01304AD14FF0FF3004B0BDE8F087D7
S31500004870236843F02003236078273248236884F8AE
S3150000488045701F06316851F8045B02D45F0648BFC5
S31500004890ADB23160D90744BF43F0200323601DB198
S315000048A01023ADE72648E9E7236823F020032360B9
S315000048B0F6E71646BDE733682568181D616930605E
S315000048C02E061B6801D5196002E06806FBD5198023
S315000048D0002316462361BCE7336800211A1D3260A7
S315000048E01E686268304600F059F808B1801B6060A7
S315000048F063682361002384F84330AAE723693246BC
S3150000490049464046D0470130ADD023689B0713D4B3
S31500004910E068039B9842B8BF1846A6E701233246D3
S3150000492049464046D04701309DD00135E36803999A
S315000049305B1AAB42F2DCEBE7002504F11906F5E75A
S31500004940B1740000C2740000884210B501EB020485
S3150000495002D98442234607D8431EA14208D011F843
S31500004960012B03F8012FF8E7024401468A4200D1E1
S3150000497010BD13F8014D02F8014DF7E738B50023D5
S31500004980054D044608462B60FDF7E8FF431C02D19F
S315000049902B6803B1236038BD60090020C9B2034605
S315000049A0024410B59342184601D1002003E0047872
S315000049B001338C42F6D110BD2DE9F041074614466D
S315000049C00D4621B91146BDE8F041FFF749BC2AB9A9
S315000049D02546FFF7D9FB2846BDE8F08100F01AF816
S315000049E08442064602D8B4EB500FF4D82146384626
S315000049F0FFF736FC804608B94546ECE7B442224646
S31500004A00294628BF3246FFF7B1FB29463846FFF74D
S31500004A10BBFBF1E751F8043C181F002BBCBF0B5839
S31500004A20C01870470000000008B52DED048BB0EEED
S31500004A30408AF0EE608A00F03FFAB0EE409AF0EE5F
S31500004A40609AB0EE480AF0EE680A00F02DF978B1E7
S31500004A5019A3D3E9002351EC180BFFF7E9FA70B953
S31500004A6017A3D3E9002351EC180BFFF7C3FA98B943
S31500004A70B0EE490AF0EE690ABDEC048B08BD9FED65
S31500004A800A9BFFF76BFB2223B0EE490AF0EE690A98
S31500004A900360BDEC048B08BDFFF760FB22239FED8E
S31500004AA0049B0360E4E700BF000000000000F07F05
S31500004AB00000000000000000EF39FAFE422E86409A
S31500004AC051302DD5104987C038B555EC104B2DED1A
S31500004AD0028B00F0C1FB22462B4620462946B0EE4B
S31500004AE0408AF0EE608A01F011FF98B90022002397
S31500004AF020462946FFF788FA60B1002200232046A7
S31500004B002946FFF76DFA60B1FFF728FB22239FEDD8
S31500004B100C8B0360B0EE480AF0EE680ABDEC028B1F
S31500004B2038BDFFF71BFB212203460748BDEC028B6D
S31500004B301A60BDE8384000F0C7B800BFAFF3008088
S31500004B40000000000000F0FF106C000000000000F4
S31500004B50F8B555EC114B2DED028B57EC106B00F0B0
S31500004B6017FC22462B4620462946B0EE408AF0EE38
S31500004B70608A01F0CBFE78B9002200233046394620
S31500004B80FFF72EFAF0B10022002320462946FFF750
S31500004B9027FA40B19FED288BB0EE480AF0EE680A7E
S31500004BA0BDEC028BF8BD45EC104B00F07DF80028FB
S31500004BB0F2D00022002320462946FFF71BFA0028E0
S31500004BC0EAD02EE0B0EE480AF0EE680A00F06CF883
S31500004BD0A0B10022002351EC180BFFF701FA0028C0
S31500004BE0DAD047EC106B00F05FF80028D4D045EC23
S31500004BF0104B00F059F80028CED012E047EC106BAD
S31500004C0000F052F80028E4D045EC104B00F04CF8C8
S31500004C100028DED053EC182B51EC180B01F076FE71
S31500004C2020B9FFF79BFA22230360B5E7FFF796FA50
S31500004C3021230360B0E700BF000000000000F03F42
S31500004C4038B555EC104B2DED028B00F045F8224699
S31500004C502B4620462946B0EE408AF0EE608A01F0E7
S31500004C6055FE30B90022002320462946FFF7C2F937
S31500004C7030B9B0EE480AF0EE680ABDEC028B38BDDA
S31500004C80FFF76CFA21210022002301601046194625
S31500004C9001F054FD41EC180BB0EE480AF0EE680A3C
S31500004CA0BDEC028B38BD00BF82B005488DED000B10
S31500004CB0019B23F000431844C00F02B0704700BFA9
S31500004CC000001080000000009FED010B704700BF40
S31500004CD0000000000000F87F73482DE9F84F55ECFE
S31500004CE0104BA84322462B4600F09E80002D2146FD
S31500004CF05EDD2C1500F0C880C3F31303E207A4F2AF
S31500004D00FF3743F4801303D4CA0F490002EB430371
S31500004D105B0000264A004FF0160C03EBD173B64633
S31500004D207F104FF400110EEB0100D40F5200984291
S31500004D3003DC00EB010E1B1A0E44BCF1010C04EB64
S31500004D4043034FEA5101EED1654620244FF000415E
S31500004D5013E0904208D89E4506D1002800EB010CCE
S31500004D603DDB0023121A0D44D00F013C4FEA5101DE
S31500004D7000EB43034FEA420235D09E450CEB01009F
S31500004D80E7DA002800EB010C07DB9042F046A3EBC4
S31500004D900E030BD9013BC646E4E7BCF1000FF4DB7A
S31500004DA090420EF10108A3EB0E03F3D8C646D9E7ED
S31500004DB025F00040204335D0002D5AD1CA0A153BB4
S31500004DC04905002AFAD0D6021C46084613465CD589
S31500004DD020254FF0FF32E840A41A03438CE7BCF1CC
S31500004DE0000FDDDABDE7134312D0DFF8C4A0DFF809
S31500004DF0C4B0DAE90001DBE90023DAE90089FEF74D
S31500004E00E1FE02460B4640464946FFF7FDF8B8B9B3
S31500004E106C08264944EAC67201EB660101EB0753AA
S31500004E2043EC102BBDE8F88F2046294601F05CFBC9
S31500004E3022462B46FEF7C8FE41EC100BBDE8F88F64
S31500004E40B5F1FF3FDAE90001DBE9002328D0FEF7E0
S31500004E50BBFE02460B46DAE9008940464946FFF7A3
S31500004E60C9F8F8B1AB1C05F1020408BF01366408A5
S31500004E70CFE720462946FEF7A5FE02460B4601F07F
S31500004E805DFC41EC100BCDE7104600215B000A46A5
S31500004E900131DD02FAD5C1F1200500FA01F19AE7E8
S31500004EA00136B6E70135B3E70000F07F0000E03FCA
S31500004EB0E0740000D87400002DE9F04755EC104B63
S31500004EC025F00042D84986B0EE0F8A420DD9D7495F
S31500004ED08A4271D9C5F313032246234340F0538116
S31500004EE0002E66D09FEDB80B63E0D14B9A4200F2DC
S31500004EF02F81D04B9A4240F2148122462B462046FF
S31500004F00294601F0F1FA06460F46B1A3D3E900237C
S31500004F1001F0EAFAB0A3D3E90023FEF753FE3246C6
S31500004F203B4601F0E1FAAEA3D3E90023FEF74CFEBF
S31500004F3032463B4601F0D8FAABA3D3E90023FEF78D
S31500004F4041FE32463B4601F0CFFAA9A3D3E900233E
S31500004F50FEF73AFE32463B4601F0C6FA02460B46DB
S31500004F6020462946FEF72EFECDE90201DDE902893B
S31500004F702046294642464B4601F0B6FA06460F46FB
S31500004F8000224FF0804340464946FEF71BFE02468C
S31500004F900B463046394601F0D1FB22462B46FEF73A
S31500004FA011FE02460B460020A349FEF70BFE41EC1C
S31500004FB0100B06B0BDE8F0878FA3D3E90023204687
S31500004FC02946FFF735F80746002840F0E6802046D8
S31500004FD029468BA3D3E90023FFF70CF8002840F0FD
S31500004FE03581964B2046294603EBC60686A3D3E9B0
S31500004FF0002301F079FAD6E90023FEF7E5FD01F07A
S315000050009BFC8246FEF72CFF06460F4680A3D3E99B
S31500005010002301F069FA02460B4620462946FEF7B0
S31500005020D1FD80468946304639467BA3D3E9002325
S3150000503001F05AFACDE90001DDE900234046494670
S31500005040FEF7C0FD02460B4604460D4601F04CFA3B
S3150000505006460F465EA3D3E9002301F045FA5EA398
S31500005060D3E90023FEF7AEFD32463B4601F03CFA9B
S315000050705BA3D3E90023FEF7A7FD32463B4601F0CA
S3150000508033FA59A3D3E90023FEF79CFD32463B468B
S3150000509001F02AFA56A3D3E90023FEF795FD32461E
S315000050A03B4601F021FA02460B4620462946FEF70A
S315000050B089FD06460F462046294632463B46CDE93F
S315000050C0026701F011FACDE90401BAF1000F3FF4CD
S315000050D04DAF32463B4600204FF08041FEF772FD51
S315000050E002460B46DDE9040101F028FB02460B46A9
S315000050F0DDE90001FEF766FD42464B46FEF762FD1E
S3150000510002460B4600204C49FEF75CFD6FF47F72A9
S31500005110924548DB01EB0A5141EC100B06B0BDE8A5
S31500005120F0873FA3D3E9002320462946FEF74CFD2E
S315000051300022414BFEF77CFF00283FF4DEAE002242
S315000051403D4B20462946FEF73FFD41EC100B30E76C
S315000051503B4B9A423FF645AF3A4B20462946F40070
S3150000516003EBC60386F0010AD3E90023FEF72AFD06
S31500005170354B804689462344AAEB060A93ED007B0D
S315000051808DED007B58E72B4620462946FEF71CFD91
S3150000519041EC100B06B0BDE8F087002006B0BDE874
S315000051A0F04700F0C1BF0AF57A7A00224FF0B873D3
S315000051B001EB0A5101F098F941EC100B06B0BDE87D
S315000051C0F08700BFAFF30080000000000000000081
S315000051D0D0A4BE726937663EF16BD2C541BDBB3EF7
S315000051E02CDE25AF6A56113F93BDBE166CC1663FD5
S315000051F03E5555555555C53FEF39FAFE422E864068
S3150000520051302DD5104987C0FE822B654715F73FD3
S315000052100000E0FE422EE63F763C7935EF39EA3D66
S315000052209C7500883CE4377E412E8640FFFFEF7F69
S31500005230422ED63FFFFFEF3D0000F03F087500000D
S31500005240B1A2F03FF8740000E8740000384606B0DA
S31500005250BDE8F04700F060BF2DE9F84355EC104B70
S31500005260B5F5801F2B462DED028B1FDA25F0004287
S31500005270224360D0002D6ADB0022414B204629469E
S3150000528001F032F90D463F4A04462B466FF03501D0
S3150000529093420FDD22462B4620462946FEF794FC14
S315000052A041EC100BBDEC028BBDE8F883354A0021BA
S315000052B09342EFDC1815C3F31306A0F2FF3008443F
S315000052C0C70F00EBD070FEF7CBFD40F2FF338046F0
S315000052D08946DB1B46EA035523A3D3E9002345ECA5
S315000052E0184B01F001F9B0EE480AF0EE680A0446E0
S315000052F00D4600F021FF1EA3D3E9002351EC100B4D
S3150000530001F0F2F822462B46FEF75EFC04460D46F7
S315000053104046494618A3D3E9002301F0E5F80246C2
S315000053200B4620462946FEF74FFCBDEC028B41ECAE
S31500005330100BBDE8F883002200230020124901F07B
S31500005340FDF9BDEC028B41EC100BBDE8F88322465B
S3150000535020462946FEF736FC0022002301F0EEF92E
S3150000536041EC100B9EE700BF362BF111F3FE593DC1
S315000053700EE526157BCBDB3F00609F501344D33FE1
S3150000538000005043FFFFEF7F000050C30000000005
S315000053902DE9F04F55EC114B25F0004393B053EA3D
S315000053A0040057EC106B12D1B31987F4002284491C
S315000053B05241984291411DD222462B4630463946EB
S315000053C0FEF702FC41EC100B13B0BDE8F08F7D48F0
S315000053D027F0004AB9463146824510D97A4A4A44EE
S315000053E00A43E9D1231985F40021754849419A42B7
S315000053F08841E1D39FED700B13B0BDE8F08FA8464E
S315000054002246504601D1002ED6D1DFF8B8C16345F9
S31500005410E4D801D1002AE1D1B9F1000F20DB002A3E
S315000054205DD1DFF8A0C163450BD09346674A93422E
S3150000543040F0C784B8F1000FC0F20C8547EC106B42
S31500005440C2E7614B53440B43D4D0614B9A4540F2BB
S31500005450CA84B8F1000FC0F24F8545EC104BB3E794
S31500005460DFF874C163454BD9002A40F0E483554AFE
S315000054709342E6D04FF0020B04910290009347EC62
S31500005480106B00F087FD0499009B029800295ED0FE
S315000054904FEAD972013A52EA0B0100F08A800BF109
S315000054A0FF3B5BEA020B00F0A1839FED437B8DED92
S315000054B0047BB3F1844F40F29180464A9342444BB9
S315000054C040F222849A4500F2CF84B8F1000FC0F270
S315000054D0CF84002013B0BDE8F04F00F01DBE4FF0A2
S315000054E0000B04910290009347EC106B00F052FD04
S315000054F00499009B029851B34FEAD972013ACEE75C
S31500005500DFF8CCC063450FD94FEA235CACF2FF3C11
