S00F00006932635F70726A2E737265636C
S315000000006004002079110000B90F0000751100008E
S3150000001075110000751100007511000075110000C2
S315000000200000000000000000000000007511000044
S315000000307511000000000000751100007511000028
S31500000040450A0000B9090000D50A00001D0B000092
S3150000005040003500080000200000000038050020A0
S31500000060A005002008060020000000000000000097
S31500000070000000000000000000000000000000007A
S31500000080000000000000000000000000000000006A
S31500000090000000000000000000000000000000005A
S309000000A00000000056
S315000000A40348044B834202D0034B03B118477047FD
S315000000B4540000205400002000000000064B0749AD
S315000000C4C91A891048BF0131491003D0044B0BB13A
S315000000D401481847704700BF540000205400002010
S315000000E40000000010B5064C237843B9FFF7D8FF8B
S315000000F4044B13B10448AFF300800123237010BDF1
S315000001047C0400200000000084A2000108B5054B11
S315000001141BB105490548AFF30080BDE80840FFF769
S31500000124CDBF00BF000000008004002084A20001AF
S315000001340379013B1F2B14D8DFE803F018141313BB
S31500000144131313101313131313131310131313137B
S315000001541313131313131313131313100122054B41
S315000001641A7070470122044B1A7070470122034B20
S315000001741A707047980400209A04002099040020FD
S3150000018408B50749074800F03BFA00B1FEE7034605
S3150000019402460549034800F009FA00B1FEE708BD26
S315000001A46C1C0000A404002035010000D8B10A46E6
S315000001B4C9B138B500230E4D0E4C01460E482B70BE
S315000001C4237000F0CBF968B90C4B03E0227822B90E
S315000001D4013B03D32A78002AF8D033B12378002BC5
S315000001E418BF122038BD03207047142038BD00BF45
S315000001F49A04002098040020A404002040420F0022
S3150000020400B54FF4806183B01A4A1B4800F094FD90
S3150000021440F20141174A184800F08EFDEFF31081B1
S31500000224012383F31088154B5A6822F400725A602E
S315000002345B6881F3108800234021114A1370117002
S315000002440193019B632B05DC019B01330193019B05
S31500000254632BF9DD1C224FF0C00C30208021084BA3
S3150000026483F800C098705A741A74197003B05DF854
S3150000027404FB00BF400001079C0400200040084026
S3150000028400F00940234A537843F002035370537A2B
S315000002941B06FCD54FEA400C5FFA8CF31D48937499
S315000002A4437A1B06FCD51B4A8174537A5906FCD53E
S315000002B4537A184923F040035372537843F00403E6
S315000002C453704B785B07FCD412494B7A1806FCD55D
S315000002D44CF0010C5FFA8CFC0E4A81F812C0537A7A
S315000002E49906FCD513790B4943F04003137113792E
S315000002F443F010031371137943F008031371D37C8D
S315000003044B7A9B06FCD54B7843F008034B70C87CAC
S31500000314704700BF00F0094000B540F20C5183B0AD
S315000003241F4A204800F008FD40F20B511C4A1D48A4
S3150000033400F002FDEFF31081012383F310881A4BBA
S315000003445A6822F480725A605B6881F3108800232D
S315000003544021164A137011700093009B632B05DC31
S31500000364009B01330093009B632BF9DD0023C0211E
S315000003740E4A11700193019B632B05DC019B01332B
S315000003840193019B632BF9DD4D2250208021074BFD
S3150000039498705A741A74197003B05DF804FB00BFA0
S315000003A4500001079C0400200040084000F1094069
S315000003B410B53B4C94F801C04CF0020C84F801C013
S315000003C494F809C05FEADC1CFAD04FEA400C5FFAE5
S315000003D48CF0A074324C607AC009FCD03048A17409
S315000003E4417A4C06FCD5417841F0040141702C4811
S315000003F441784907FCD42A4C617AC909FCD04CF0EF
S31500000404010C5FFA8CFC264884F812C0417A8C06EB
S31500000414FCD50179012B41F0400101712BD0C17C3F
S3150000042403B34FF0000C1E489C1E013A03F1FF3E35
S31500000434417A8906FCD5A44507D1017941F010011A
S315000004440171017941F008010171F4450CF1010CC7
S3150000045403D1417841F008014170C17C634502F83B
S31500000464011FE5D10E4A137923F040031371537823
S31500000474DB09FCD110BD0379094943F0100303716C
S31500000484037943F008030371C37C4B7A9806FCD5C1
S315000004944B7843F008034B70CB7C1370E2E700BF44
S315000004A400F109402DE9F0419CB0FFF769FEFFF722
S315000004B4A7FEFFF731FF00213220FFF7E3FE03AC6E
S315000004C4232803464FF06401204625D0164A00F03F
S315000004D4EBFE1C212046FFF769FEDFF85880134F18
S315000004E402AA032300216820FFF762FF9DF80A6031
S315000004F49DF8095042469DF8083064212046CDE90E
S31500000504005600F0D1FE28212046FFF74FFE39465B
S31500000514052000F009FDE3E7054A00F0C5FE2A219F
S315000005242046FFF743FED8E71C1C000040420F009C
S31500000534EC1B00003C1C0000022800D07047024956
S31500000544024800F0EFBB00BFA01C00009C04002082
S3150000055408B5FFF7A7FF002008BD00BF10B4046A62
S31500000564A37803F07B03A3708378046A03F0030380
S31500000574D21A0B44C0E90332A37843F08003A37074
S31500000584837803F00303022B06D0036A0A7800205B
S31500000594DA705DF8044B70470B88026A43F47E43B5
S315000005A4D38100205DF8044B704700BF84460020C9
S315000005B4CCE90A32CCF82410704700BFF0B5846A3F
S315000005C485B005460F4694466E46B4B194E80F00CE
S315000005D486E80F00EB6920461B78A760236084F841
S315000005E404C0EB6AE3606B6A9847AC6A1CB196E890
S315000005F40F0084E80F0005B0F0BD3446EAE700BFFB
S31500000604012203460878824012F0060F05D0CA6913
S3150000061452681278120700F1CB8100224FF0010CC8
S3150000062400F580002DE9F04100F58C500002C3E985
S3150000063407101A704D6998785D628D696CF3010034
S31500000644C3E90A2598704878D44C904214BF65468D
S315000006540225987865F30100987091F90B5091F88A
S315000006640AE0680905F01F0620300CFA06F644F87D
S315000006742060BFF34F8FBFF36F8FC94805F1C006E3
S3150000068450F8267062F3104740F8267050F826603A
S31500000694C44E4FEA0E1E67195FFA8EFE87F800E312
S315000006A446F8253091F9055091F804E06F0905F0F4
S315000006B41F0820370CFA08F844F82780BFF34F8F39
S315000006C4BFF36F8F05F1C00750F8278062F3104817
S315000006D440F8278050F827704FEA0E1E67195FFA14
S315000006E48EFE87F800E346F8253091F9075091F815
S315000006F406E06F0905F01F0820370CFA08F844F8DD
S315000007042780BFF34F8FBFF36F8F05F1C00750F8F3
S31500000714278062F3104840F8278050F827704FEA84
S315000007240E1E67195FFA8EFE87F800E346F8253039
S3150000073491F9095091F808E06F0905F01F08203770
S315000007440CFA08F844F82780BFF34F8FBFF36F8F76
S3150000075405F1C00750F8278062F3104840F8278057
S3150000076450F827004FEA0E10C0B22C4484F8000358
S3150000077446F82530EFF310868CF310884FF00045C9
S315000007840C788948E540446824EA050444604068D6
S3150000079486F31088186A8270186A0271186A42729F
S315000007A4186A8272186AC272186A428340F2F9326F
S315000007B408780CFA00FC1CEA020F02D040201A6AE0
S315000007C4D0740625012240F2F9301C6A25770C788C
S315000007D4A240024240F0CA80CA7848788C78D20097
S315000007E4032842EA041200F0D58000280CBFE22058
S315000007F4F2201C6AD2B222701A6A9071CC69227BEA
S31500000804082A00F0C380186A520002F002024273FA
S3150000081400256278A078D201400100F02000D2B20F
S315000008240243186A0572207802380128186A40F2D1
S31500000834A280D2B2C27160681A6A8478547045780C
S31500000844147865F301041470C4789474D479007828
S3150000085404F0A30400F05C002043D0710020C3E937
S315000008640300C3E90500DC694D4A94F90540CD69E6
S3150000087404F1C00152F8216095F800C060F31046F7
S3150000088442F821600CF0030C52F82110BFF35F8F7D
S315000008944FF0010E6109890004F01F0401F1604163
S315000008A401F561410EFA04F4C1F880410C60D9697E
S315000008B491F90B4004F1C00152F8216060F310462F
S315000008C442F8216052F82110BFF35F8F6109890055
S315000008D404F01F0401F160410EFA04F401F56141CC
S315000008E4C1F880410C60D96991F9074004F1C0014F
S315000008F452F8216060F3104642F8216052F8211044
S31500000904BFF35F8F6109890004F01F0401F16041A0
S315000009140EFA04F401F56141C1F880410C60D9690D
S3150000092491F9091001F1C00452F8246060F31046ED
S3150000093442F8246052F82420BFF35F8F4A099200DC
S3150000094401F01F0102F160420EFA01F102F5614263
S31500000954C2F8801111601A6A4CF0700C82F802C059
S315000009646989124A19815A60BDE8F0814FF47840CA
S315000009741A6A908230E7FF2545702078022808BF5E
S3150000098442F01002186AD2B2C27167E70A201A6AE4
S3150000099450733DE7F22042F040022AE700E100E00E
S315000009A400600040180500200040084055494353A4
S315000009B403207047EFF30383103B1F4A5BB203F136
S315000009C4C00152F8210020F4803042F8210052F888
S315000009D421201A4A52F82300C3691B6983B10369AB
S315000009E403B17047026A0021937803F07F0343F052
S315000009F404039370436AC160C3B18022FFF7DEBD6E
S31500000A040369026A002BEED08378C16803F00303FE
S31500000A14022B0CD00B78D3708278D0E9031302F042
S31500000A2403029B1A1144C0E90313D9E770470B88E4
S31500000A3443F47E43D381EFE70060004018050020AD
S31500000A4410B582B0EFF30383103B1F4A5BB203F188
S31500000A54C00152F8210020F4803042F8210052F8F7
S31500000A6421201A4A52F82340A27802F00303022BEB
S31500000A74236A0CBF198A5979A3690CBFC1F308010B
S31500000A84C9B2019143B9636AB3B10422204602B0E4
S31500000A94BDE81040FFF792BD02F0030201A96069A8
S31500000AA400F046FCD4E90521A37803F003031A44B5
S31500000AB4C91AC4E9052109B102B010BD636A002B45
S31500000AC4FAD00122E2E700BF0060004018050020CA
S31500000AD410B5EFF303830E4A103B5CB252F82400C0
S31500000AE4026A937803F07B039370436A1BB1022274
S31500000AF40021FFF763FD074A04F1C00352F82310EF
S31500000B0421F4803142F8231052F8233010BD00BF7F
S31500000B14180500200060004010B5EFF303831A4A5D
S31500000B24103B5CB252F82400837803F00303022BD3
S31500000B34036A0CBF198A597993F804C00CBFC1F330
S31500000B440801C9B21CF0100F0CF0380206D093F855
S31500000B541CC01CF0010F08BF42F0400293F804C009
S31500000B640CF0C70C83F804C0436A0BB1FFF726FDEB
S31500000B74064A04F1C00352F8231021F4803142F8E6
S31500000B84231052F8233010BD1805002000600040E1
S31500000B942DE9F84F0388DBB182464FF0000B4FF086
S31500000BA40109DFF8D0800024304D4FEACB07DAF88C
S31500000BB4043035F8022BD919898891420AD00134B8
S31500000BC4032CF4D1BAF800300BF1010B5B45EAD8DB
S31500000BD4BDE8F88FDB5909FA04F603F0B853B3F10C
S31500000BE4807FF6B298F8BB3413D0334231D1204A11
S31500000BF404F1200612F81630DB09E0D012F816309C
S31500000C04012123F08003C82002F8163000F08CF985
S31500000C14D5E7334211D0164A04F1200112F81130F7
S31500000C24DB09CCD112F81130C82043F0800302F856
S31500000C341130012100F078F9C1E7012000F064FACF
S31500000C4498F8BB340120334388F8BB3400F02CFAFF
S31500000C54E1E7012000F058FA98F8BB34012023EAB2
S31500000C64060388F8BB3400F01FFAC0E7341F0000FF
S31500000C740030084000E00140F8B50646FFF788FF5B
S31500000C84EFF31082012383F31088234F3B681BB9CB
S31500000C942249CB704023CB703B6801333B6082F31F
S31500000CA41088338823B300211D4D08E01B0113442B
S31500000CB445F82340328801318BB29A4218D97368B9
S31500000CC453F8314003EBC1029288E0034FEA122342
S31500000CD4D2B2EBD502EB031055F820E024F4803CA5
S31500000CE42EF4803E45F820E01B0145F820C0DEE7DF
S31500000CF4EFF31082012383F310883B6813B13B683A
S31500000D04013B3B603B681BB980200449CB70C8702B
S31500000D1482F31088F8BD00BF14050020000D0840BA
S31500000D240008084008B5034B03600846FFF7A4FF14
S31500000D34002008BD54524F5070B5012686B001AB51
S31500000D4403A80C4615460493ADF80C60ADF80810DC
S31500000D540192FFF71DFFEFF3108286F310881D49F9
S31500000D640B681BB940261C48C370C6700B68013358
S31500000D740B6082F31088EA034FEA1423E4B219D411
S31500000D841B01164A234442F82350EFF31082012331
S31500000D9483F310880B6813B10B68013B0B600B6877
S31500000DA41BB980200C49CB70C87082F310880020D0
S31500000DB406B070BD094A04EB031052F820601B010B
S31500000DC426F4803642F8206025F4803642F8206006
S31500000DD4D7E700BF14050020000D084000080840AE
S31500000DE4064B074993F826001A6A51F82030C2F3D5
S31500000DF402620449D3400B60704700BF00E0014023
S31500000E0460040020340500204AF2035001232F49D0
S31500000E142F4A2DE9F043A1F8FE03A2F80431B2F8F3
S31500000E2404319BB2002BFAD101244FF40045294822
S31500000E342949C0E903338560A2F80041274A8C603A
S31500000E440C600260264A01F5B83191F826504260DA
S31500000E540A6A81F8804481F83630224B436191F85E
S31500000E643C30DA07FBD542F211740023174A0C858D
S31500000E7481F82A3092F83C309B06FBD505244FF0C6
S31500000E8403090123F1254FF0F00E4FF4254CDFF84A
S31500000E944080154F88F81C91176282F8264092F814
S31500000EA42640124950F82400146A114EC4F3026411
S31500000EB4E04030600D730B7281F80CE082F830303C
S31500000EC482F85230A2F8FEC3BDE8F08300E0014088
S31500000ED400C001406004002000700040002D310174
S31500000EE400127A0000C2EB0B211201200020004000
S31500000EF43405002010B50024064B012083F8284051
S31500000F0400F002F9044B012083F8BB44BDE810400D
S31500000F1400F0CAB80030084000E00140A0F101002A
S31500000F240028FBD1704700BF1F4B204A1B6800FBFB
S31500000F3401F1934213D302F1854202F5071203F538
S31500000F44741302F6834203F6FF03A2FB03231B0D6D
S31500000F54A3FB01314FF0FF30F9B1FFF7DFBF4FF4C8
S31500000F647A7210B4A1FB02C41148B0FBF3F34FF03C
S31500000F74FF3044B9BCFBF3FC4FEA9C0088B15DF832
S31500000F84044BFFF7CBBF9B00B1FBF3F1A1FB0212AD
S31500000F94002AF4D1084620B1F1E71846002BDCD12B
S31500000FA470475DF8044B70473405002000127A0040
S31500000FB400CA9A3B70B500240B4B0C4EB3F82021A3
S31500000FC4B3F84051ADB2154025FA04F3DB0704D556
S31500000FD456F82430E0B203B198470134102CF3D10B
S31500000FE4014BA3F8305170BD00600040D4040020CA
S31500000FF470B5032084B000F087F86FF0FF054FF05A
S31500001004FF31254A254C13885088002BA5640BBF55
S31500001014002601260B466FF00103CDE90111039169
S3150000102438B3918823F0020359B3D28823F004031A
S3150000103422BB019319491A4A0B67C2F88032029BF4
S3150000104403204B67C2F88432039B164C8B67C2F8A5
S31500001054883200F029F800230F4931F8022B03F1F6
S31500001064C00001330AB144F82020042BF5D104B0A2
S3150000107470BD90880028D8D1D28842B123F00803E5
S31500001084D7E7D288002AD4D023F00803D1E7002E6C
S31500001094CFD10B46CEE700BF2C1F000000800040D6
S315000010A400E100E000600040EFF31081012383F3C8
S315000010B41088124B33F8102092B22AB133F810205C
S315000010C4013A92B223F8102033F810309BB293B948
S315000010D410B40B4A0B4CB2F8FE3334F810009BB232
S315000010E443F4254323EA0003A2F8FE3381F3108870
S315000010F45DF8044B704781F310887047280500207B
S3150000110400E001401420000030B4EFF31081012305
S3150000111483F310880E4A32F810309BB26BB90D4C2B
S315000011240D4DB4F8FE3335F810C09BB243EA0C03F8
S3150000113443F425439BB2A4F8FE3332F8103001334E
S315000011449BB222F8103081F3108830BC704700BF80
S315000011542805002000E001401420000008B500F036
S31500001164DFF80C2203461A604FF0FF3008BD00BFBB
S3150000117400BE704708B500F035F8FFF7E9F9FEE759
S31500001184F8B5174F05463E68A6B17C6806EB4606D9
S3150000119404EB860602E00C34B4420BD0637AAB420D
S315000011A4F9D1D4E900020021121A0C3400F0B0F887
S315000011B4B442F3D1BE6896B1FC6804EB061602E0AD
S315000011C41034A6420BD0637BAB42F9D1D4E90002BA
S315000011D4A168121A103400F0ABF8A642F3D1F8BD98
S315000011E43C1F00004FF47001274B284A70B50020BD
S315000011F4C3F888109A60FFF79FF9FFF705FE0120F0
S31500001204FFF79AF9224B83F30A880020FFF7B8FF09
S31500001214FFF7E6FDFFF76EFE0320FFF775FF0023D9
S315000012244FF6FF701B4903F1080201330C2B21F81A
S315000012341200F8D100240320FFF736FF0320FFF73E
S3150000124463FF154B03205C609C60DC601C61FFF748
S315000012542BFF0220FFF770F90120FFF791FF0F4DD6
S315000012640F4B5B1BA3424FEAA30605DD55F8043B6F
S3150000127401349847A642F9DCFFF7BAFEBDE8704090
S31500001284002000F00FB800BF00ED00E000000000F1
S3150000129460000020000D084000000E40AC20000055
S315000012A4B0200000704700BF0CB4184B30B50C1EBC
S315000012B49DB01D6808DA8B234FF0FF302B601DB0FC
S315000012C4BDE8304002B070474FF4027302900690B6
S315000012D402A9ADF8143014BF04F1FF332346209A53
S315000012E42846049307934FF6FF73ADF8163021ABE7
S315000012F4019300F07FF9431CBCBF8B232B60002CA9
S31500001304DDD0029B00221A70D9E700BF040000203A
S3150000131402440346934200D1704703F8011BF9E7E0
S31500001324014B1868704700BF0400002070477047DF
S315000013340A44431E914200D1704710B511F8014B7F
S31500001344914203F8014FF9D110BD000038B50546A6
S31500001354002941D051F8043C0C1F002BB8BFE418F7
S3150000136400F0E0F81D4A136833B963601460284638
S31500001374BDE8384000F0DCB8A34208D9206821183B
S315000013848B4201BF19685B6809182160EDE71A46AC
S315000013945B680BB1A342FAD911685018A0420BD16D
S315000013A420680144501811608342E0D118685B68D4
S315000013B4084453601060DAE702D90C232B60D6E7A1
S315000013C4206821188B4202BF19685B68091863609C
S315000013D408BF21605460CAE738BD00BF7C06002000
S315000013E470B50F4E0C460546316811B900F0A8FBDE
S315000013F430602146284600F0A3FB431C03D14FF07E
S31500001404FF34204670BDC41C24F00304A042F8D067
S31500001414211A284600F094FB0130F2D1EFE700BF11
S31500001424780600202DE9F843CD1C064625F0030571
S3150000143408350C2D38BF0C25002D01DBA94204D933
S315000014440C2333600020BDE8F883DFF8D48000F075
S3150000145469F8D8F800301C4644BB29463046FFF7E5
S31500001464BFFF431C044658D1D8F800402746002F36
S3150000147443D1002C4BD023683946304604EB03098C
S3150000148400F05EFB814542D1216830466D1A29463B
S31500001494FFF7A6FF01303AD023682B442360D8F81F
S315000014A400305A6862BBC8F800700FE02268521B0D
S315000014B420D40B2A17D96119A342256018BF596095
S315000014C4636808BFC8F8001062514B60304600F0EC
S315000014D42FF804F10B00231D20F00700C21A1CBFCD
S315000014E41B1AA350AFE76268A3420CBFC8F80020DA
S315000014F45A60EBE723466468AEE73C467F68B6E786
S315000015041A465B68A342FBD100235360DEE70C2333
S315000015143046336000F00CF894E70560D6E700BF68
S315000015247C0600200148FFF701BF00BF74060020B7
S315000015340148FFF7FCBE00BF740600202DE9F04702
S315000015441F468E6882460C46BE4290460B682DD8CE
S31500001554B1F90C2012F4906F26D06569096905EB80
S315000015644505A3EB01097B1C05EBD5754B446D10B2
S315000015749D4238BF1D46530527D52946FFF752FF1E
S31500001584064660B34A462169FFF7D2FEA38923F4CF
S31500001594906343F08003A38126614E446561A5EB05
S315000015A4090526603E46A560BE4200D93E4632463F
S315000015B44146206800F0AAFAA36800209B1BA3609A
S315000015C4236833442360BDE8F0872A4600F0D6FA40
S315000015D406460028E0D121695046FFF7B7FE0C23E2
S315000015E44FF0FF30CAF80030A38943F04003A381CB
S315000015F4E9E700002DE9F04F98468B899DB0074630
S315000016041B060D46144610D50B6973B94021FFF726
S3150000161409FF2860286130B90C233B604FF0FF3086
S315000016241DB0BDE8F08F40236B610023CDF80C801C
S315000016344FF00109DFF8A081099320238DF82930A2
S3150000164430238DF82A3023469A4613F8012B0AB123
S31500001654252AF9D1BAEB040B0BD05B462246294660
S315000016643846FFF76BFF013000F0A780099A5A4409
S3150000167409929AF80030002B00F09F8000234FF067
S31500001684FF320AF1010A049307938DF853301A9333
S31500001694CDE90523544605224F4814F8011B00F0F2
S315000016A45FFA049AD8B9D00644BF20238DF8533084
S315000016B4110744BF2B238DF853309AF800302A2B98
S315000016C415D0079A544600204FF00A0C214611F80B
S315000016D4013B303B092B4BD9B0B1079214E0A0EB88
S315000016E40803A24609FA03F313430493D2E7039BC0
S315000016F4191D1B68002B0391BBBF5B4242F002021B
S3150000170407930793B8BF049223782E2B0AD16378E4
S315000017142A2B32D1039B02341A1D1B6843EAE37356
S3150000172403920593DFF8C0A003222178504600F007
S3150000173417FA38B1A0EB0A004022049B0134824018
S315000017441343049314F8011B062224488DF8281029
S3150000175400F006FA002836D0214B1BBB039B073347
S3150000176423F0070308330393099B334409936AE779
S315000017740CFB02320C460120A8E7002301344FF08B
S315000017840A0C19460593204610F8012B303A092A0B
S3150000179403D9002BC6D00591C4E70CFB01210446EE
S315000017A40123F0E703AB2A4604A9384600930D4B00
S315000017B4AFF30080421C0646D6D1AB895B063FF5E3
S315000017C42DAF09982CE703AB2A4604A938460093A3
S315000017D4044B00F07DF8EDE71E20000028200000F1
S315000017E40000000041150000242000002DE9F04708
S315000017F4164698468A6807460B690C46DDF820901B
S315000018049342B8BF1346336091F843200AB10133BB
S3150000181433602368990642BF336802333360256810
S3150000182415F0060506D104F1190AE36832689B1A15
S31500001834AB422BDC94F843302268003B18BF0123EB
S31500001844920630D404F1430241463846C847013073
S3150000185423D023681A3454F80A2C03F00603042B05
S315000018640ABF54F80E5C002533684FF0000608BF23
S31500001874ED1A54F8123C08BF25EAE5759342C4BF35
S315000018849B1AED18B5421AD1002008E001235246EE
S3150000189441463846C847013003D14FF0FF30BDE812
S315000018A4F0870135C1E7E1185A1C3020023322447F
S315000018B481F8430094F8451082F84310C2E70123E7
S315000018C4224641463846C8470130E6D00136D9E7B4
S315000018D42DE9FF470F7E914680460C46782F9A469F
S315000018E40C9E01F1430207D8622F0AD8002F00F09C
S315000018F4D180582F00F0B88004F1420684F8427073
S315000019043AE0A7F16303152BF6D801A151F823F0A9
S315000019146D19000081190000FD180000FD18000073
S31500001924FD180000FD18000081190000FD180000D4
S31500001934FD180000FD180000FD1800007F1A0000C5
S31500001944AB190000391A0000FD180000FD1800004C
S31500001954A11A0000FD180000AB190000FD180000D4
S31500001964FD180000411A000033681A1D1B68326016
S3150000197404F1420684F8423001239CE0336820686F
S31500001984191D3160060601D51D6803E04506FBD521
S31500001994B3F90050002D03DA2D236D4284F8433049
S315000019A458480A2311E021683368080653F8045B93
S315000019B402D4490648BFADB26F2F3360514814BFF5
S315000019C40A230823002184F843106668002EA660C3
S315000019D405DB21682E4321F0040121604BD0164615
S315000019E4B5FBF3F103FB1157C75D06F8017D2F46DE
S315000019F40D46BB42F4D9082B0BD12368DF0708D563
S31500001A04236961689942DEBF302306F8013C06F17A
S31500001A14FF36921B22614B4603AA21464046CDF867
S31500001A2400A0FFF7E3FE01304AD14FF0FF3004B0C7
S31500001A34BDE8F087236843F0200323607827324803
S31500001A44236884F845701F06316851F8045B02D494
S31500001A545F0648BFADB23160D90744BF43F02003E7
S31500001A6423601DB11023ADE72648E9E7236823F078
S31500001A7420032360F6E71646BDE733682568181D7C
S31500001A84616930602E061B6801D5196002E068069C
S31500001A94FBD51980002316462361BCE73368002171
S31500001AA41A1D32601E686268304600F059F808B1A3
S31500001AB4801B606063682361002384F84330AAE7CF
S31500001AC42369324649464046D0470130ADD02368A3
S31500001AD49B0713D4E068039B9842B8BF1846A6E751
S31500001AE40123324649464046D04701309DD0013550
S31500001AF4E36803995B1AAB42F2DCEBE7002504F1D9
S31500001B041906F5E72F20000040200000884210B592
S31500001B1401EB020402D98442234607D8431EA1429C
S31500001B2408D011F8012B03F8012FF8E70244014607
S31500001B348A4200D110BD13F8014D02F8014DF7E7B2
S31500001B4438B50023054D044608462B60FFF706FB0F
S31500001B54431C02D12B6803B1236038BD70060020F4
S31500001B64C9B20346024410B59342184601D1002077
S31500001B7403E0047801338C42F6D110BD2DE9F0411F
S31500001B84074614460D4621B91146BDE8F041FFF754
S31500001B9449BC2AB92546FFF7D9FB2846BDE8F0819A
S31500001BA400F01AF88442064602D8B4EB500FF4D873
S31500001BB421463846FFF736FC804608B94546ECE729
S31500001BC4B4422246294628BF3246FFF7B1FB2946CE
S31500001BD43846FFF7BBFBF1E751F8043C181F002B0E
S31500001BE4BCBF0B58C01870475A4D4F44343431307B
S31500001BF420646574656374656420737563636573D3
S31500001C047366756C6C79202849443D3078253032EA
S31500001C1458290D0A00000000556E657870656374D6
S31500001C246564204944212052656164203D20307852
S31500001C34253032580D0A000049324320526561644A
S31500001C44205B307836383A307830305D203D2030AD
S31500001C54782530325820307825303258203078258F
S31500001C64303258200D0A0000030200000C000C015B
S31500001C740C020C030000000000000000000000003D
S31500001C84000000008C1C0000000100000000002081
S31500001C940F00FFFF00000000FFFF000050000000DF
S31500001CA4AC1C0000000000000080000000000000E2
S31500001CB40080000001000000008000000200000017
S31500001CC40080000003000000104000000400000033
S31500001CD4104000000500000010400000060000004F
S31500001CE41040000008000000008000000E00000004
S31500001CF4008000000F000000000000000401000046
S31500001D040000000005010000000C010008010000AD
S31500001D14000000000B010000000C01120C01000081
S31500001D24000C01120D010000000C01120E0100004E
S31500001D34000000000F01000000000105020200007F
S31500001D440000010503020000000001050402000072
S31500001D540000010505020000000000000602000064
S31500001D640000000007020000000000000802000056
S31500001D74450C00000A020000000C01170B020000CB
S31500001D84000C01170E020000000C01000003000005
S31500001D94450C000003030000450C00000603000088
S31500001DA4450C000007030000450C00000B0300006F
S31500001DB4400C010700040000400C01070104000068
S31500001DC4104000000204000010400000030400005C
S31500001DD41040000004040000000C01170504000074
S31500001DE4000C011706040000000C01130704000090
S31500001DF4450C000009040000000C01060A0400005A
S31500001E04000C01060B040000000C01060C04000083
S31500001E14000C01060D040000000000000E04000082
S31500001E24000000000F040000000C0105000500007E
S31500001E34000C010501050000000C01050205000067
S31500001E440000000003050000000000000505000076
S31500001E540000000006050000000C0105080500004E
S31500001E64400C01070B050000400C01070C0500009F
S31500001E74040C000001060000040C00000206000029
S31500001E84040C000003060000040C00000506000014
S31500001E940000000008060000040C0000090600000B
S31500001EA4040C00000A060000000000000B060000F7
S31500001EB4400C01050D060000400C01050E0600004D
S31500001EC4000C01130F060000000C011700070000A8
S31500001ED4000C011701070000000C0117020700009F
S31500001EE4000C011703070000000C0117040700008B
S31500001EF4000C011705070000000C01050607000089
S31500001F04000C010507070000000000000807000098
S31500001F140040000003080000004000000408000020
S31500001F24000C0113080A0000920193019401950123
S31500001F34020403040404000004000000E41F00007B
S31500001F4408000000641F000002000000541F000087
S31500001F5400000068000000686000002060000020A7
S31500001F6400000068000000680000006000010C0822
S31500001F740000006800000068000000700001090805
S31500001F840000006800000068000000080001020864
S31500001F94000000680000006850000000000101080D
S31500001FA400000020000000200000006000010C0377
S31500001FB4000000200000002000000070000109035A
S31500001FC400000020000000200000000800000203BA
S31500001FD4000000205400002050000000000001030F
S31500001FE400000068000000680001000800000068A6
S31500001FF40000006800010008540000206000002072
S31500002004000000037C04002080060020000000037A
S3150000201401000200080010002000232D302B2000B0
S31500002024686C4C0065666745464700303132333488
S315000020343536373839414243444546003031323328
S3150000204434353637383961626364656600000000EA
S315000020544275696C7420776974682052656E65737D
S31500002064617320416476616E63656420466C6578AD
S3150000207469626C6520536F6674776172652050617E
S31500002084636B6167652076657273696F6E20362EA1
S31500002094342E3000362E342E3000000000000406A4
S309000020A4F8B500BFC6
S309000020A8F8B500BFC2
S309000020AC1101000018
S309000020B0E90000003D
S3090100A100FFFFFFFF58
S3090100A200FFFDFFFF59
S3090100A280F8F8FFFFE5
S7050000117970
